:020000040800F2
:10000000100400200D020008F70D0008590C00082C
:10001000F50D0008F5020008410F0008000000007F
:100020000000000000000000000000001D0E00089D
:10003000F7020008000000001B0E00081F0E000859
:1000400027020008270200082702000827020008EC
:1000500027020008270200082702000827020008DC
:1000600027020008270200082702000827020008CC
:1000700027020008270200082702000827020008BC
:1000800027020008270200082702000827020008AC
:10009000270200082702000827020008270200089C
:1000A000270200082702000827020008270200088C
:1000B000270200082702000827020008270200087C
:1000C000270200082702000827020008270200086C
:1000D000270200082702000827020008270200085C
:1000E000270200082702000827020008270200084C
:1000F000270200082702000827020008270200083C
:10010000270200082702000827020008270200082B
:10011000270200082702000827020008270200081B
:10012000270200082702000827020008270200080B
:1001300027020008270200082702000827020008FB
:1001400027020008270200082702000827020008EB
:1001500027020008270200082702000827020008DB
:1001600027020008270200082702000827020008CB
:1001700027020008270200082702000800000000EC
:1001800027020008270200082702000827020008AB
:10019000270200082702000827020008270200089B
:1001A000270200082702000827020008270200088B
:1001B000270200082702000827020008270200087B
:1001C000270200082702000800000000270200089C
:1001D000270200082702000827020008270200085B
:1001E000270200082702000827020008270200084B
:1001F0002702000827020008DFF80CD000F068F89A
:1002000000480047610F000810040020064880479E
:1002100006480047FEE7FEE7FEE7FEE7FEE7FEE7EB
:10022000FEE7FEE7FEE7FEE7ED0E0008F901000835
:100230002DE9F05F0546002092469B46884606461B
:10024000814640241BE0284641464746224600F0AE
:100250002FF853465A46C01A914110D311461846FA
:10026000224600F016F82D1A67EB01084F46224689
:100270000120002100F00DF817EB00094E41201E6F
:10028000A4F10104DFDC484631462A464346BDE876
:10029000F09F202A04DB203A00FA02F10020704788
:1002A0009140C2F1200320FA03F3194390407047B4
:1002B000202A04DB203A21FA02F00021704721FABB
:1002C00002F3D040C2F12002914008431946704722
:1002D000064C074D06E0E06840F0010394E8070093
:1002E00098471034AC42F6D3FFF78AFF8C0F000812
:1002F000AC0F0008FEE770472DE9F84FDFF89CE1EE
:1003000000224FF001084FF0030B4FF00F0A00BF1F
:100310000B6808FA02F42340A34271D14D68022D04
:1003200001D0122D0FD1D5080E69570700EB8505B6
:10033000A9462D6AFF0E0AFA07FCBE4025EA0C0505
:100340002E43C9F820600F79550006680BFA05FCAA
:1003500007F0030726EA0C06AF40374307604E68F4
:10036000012E05D0022E03D0112E01D0122E0ED157
:100370008668CF6826EA0C06AF4037438760466838
:100380000F79A643C7F30017974037434760C46807
:100390008E6824EA0C04AE402643C6604C68E40034
:1003A00075D53F4C256845F480452560246822F0CA
:1003B0000306950704F4804400943A4C2D0F26441C
:1003C000D6F80848DFF8E0C00AFA05F7604524EAE5
:1003D000070401D100272EE0344FB84201D1012794
:1003E00029E0334FB84201D1022724E0314FB8420F
:1003F00001D103271FE0304FB84202D104271AE091
:1004000045E02E4FB84201D1052714E02C4FB842E9
:1004100001D106270FE02B4FB84201D107270AE090
:10042000294FB84201D1082705E0284FB84201D131
:10043000092700E00A27AF4027437546C6F8087829
:100440004E68DEF80040F60324EA030400D51C439E
:10045000124E2C60361D4D683468AD0324EA030447
:1004600000D51C430D4F346008374D683C68ED02E1
:1004700024EA030400D51C43084D3C600C354E684B
:100480002C68B60224EA030400D51C432C60521CDD
:10049000102AFFF43DAFBDE8F88F0000003C01409A
:1004A0004438024000300140000002400004024095
:1004B00000080240000C02400010024000140240FC
:1004C00000180240001C02400020024000240240AC
:1004D0000AB1816170470904FBE7000001488068A8
:1004E0007047000000000020024881680278114433
:1004F0008160704700000020032010B500F08AF8EA
:10050000002000F005F800F023F8002010BD0000E6
:1005100070B50D4D04464FF47A700C4A2978126874
:10052000B0FBF1F0B2FBF0F000F07FFB48B9102C0B
:1005300007D200222146501E00F04CF800206C60CB
:1005400070BD012070BD0000000000200C000020E4
:100550001F4808B5016841F080510160006800F053
:10056000805000901A48001D016841F480410160EC
:10057000006800F480400090032000F04BF8002257
:100580006FF00B00114600F025F800226FF00A0012
:10059000114600F01FF800226FF00900114600F02C
:1005A00019F80022501F114600F014F80022101F05
:1005B000114600F00FF80022901E114600F00AF8D4
:1005C0000022BDE80840501E114600F003B80000AC
:1005D000403802400E4BF0B41B680D46C3F30223B3
:1005E000C3F10706042E00D90426191D072901D2DC
:1005F000002300E0DB1E012404FA06F19C40491EA2
:100600002940641E994014402143F0BC00F0F4BB23
:100610000CED00E0064900F0070210B54FF6FF04AC
:100620000868044B204040EA02201843086010BDCF
:100630000CED00E00000FA051848F8B5016841F03B
:10064000805101600068164C00F0805000902068D6
:1006500040F480302060FFF741FF4FF47A76054682
:1006600005E000BFFFF73AFF401BB0420FD86068BB
:10067000C003F7D5206840F400302060FFF72EFF5C
:10068000054606E0FFF72AFF401BB04201D90320D0
:10069000F8BD60688003F5D50020F8BD4038024001
:1006A000007000402DE9F04705000F4663D0444E2E
:1006B000306800F00F00B84209D2306820F00F0017
:1006C00038433060306800F00F00B84253D12868DA
:1006D0003C4C810712D5400703D5206840F4E05018
:1006E00020602878000703D5206840F4604020602F
:1006F000A968206820F0F000084320602878C0072F
:100700002AD0304968680839012810D009680228C1
:1007100010D0890700292EDA216821F00301014356
:100720002160FFF7DBFE804641F288390DE0096861
:100730008903EFE78901EDE7FFF7D0FEA0EB0801A1
:10074000494502D90320BDE8F0876868216801F0B7
:100750000C01B1EB800FEFD1306800F00F00B84210
:100760000BD9306820F00F0038433060306800F05B
:100770000F00B84201D00120E5E72878400705D5F1
:10078000E968206820F4E0500843206028780007DA
:1007900006D52869216821F4604141EAC000206043
:1007A00000F01CF82168084AC1F30311515CC840ED
:1007B000064908600020FFF7ABFE0020C3E70000F9
:1007C000003C0240083802407C0F00080C0000206A
:1007D00001480068704700000C000020154910B562
:1007E0001548096811F00C0213D01449042A0FD0DF
:1007F000082A0ED10F4C241F2268236802F03F0202
:100800005B0207D52068C0F38810A0FB010106E059
:10081000084610BD2168C1F38811A1FB0001002327
:10082000FFF706FD2168C1F30141491C4900B0FBF7
:10083000F1F010BD083802400024F4000080BB0035
:10084000F0B50D461F49204C002887B016464FF0E2
:1008500000004FF002020F684FF0030319D047F079
:1008600004070F60096801F004010591110200916D
:10087000CDE90120CDE9033014486946FFF73CFD7E
:10088000206845EAC60120F078400843206007B0A0
:10089000F0BD47F001070F60096801F00101059103
:1008A0004FF480710091CDE90120CDE90330084873
:1008B0006946FFF721FD2068354320F0EC602843AE
:1008C000E4E70000303802400838024000080240E7
:1008D000000002402DE9F84F05004FF000076ED0F0
:1008E0002878DFF82093A9F1040AC007AAF10404CC
:1008F0004CD0D9F800104846C1F38101012908D035
:100900000068C0F3810002280AD1DAF80000400232
:1009100006D52068800339D568680028DFD035E027
:100920006868B0F5803F0BD010B1B0F5A02F11D0A2
:10093000206820F480302060206820F4802002E0CD
:10094000206840F480302060686890B1FFF7C6FDF1
:1009500006460AE0206840F480202060F0E700BFEF
:10096000FFF7BCFD801B642872D820688003F7D590
:100970000CE0FFF7B3FD064605E000BFFFF7AEFD54
:10098000801B6428F0D820688003F7D4287880077B
:1009900042D5D9F80010484611F00C0F08D0006875
:1009A000C0F3810002280BD1DAF80000400207D41E
:1009B0002068800718D5E868012800D114E01EE1FE
:1009C000E8680028206817D040F001002060FFF799
:1009D00085FD064605E000BFFFF780FD801B02286D
:1009E000C2D820688007F7D52869216821F0F8016E
:1009F00041EAC00020600FE020F001002060FFF716
:100A00006DFD064605E000BFFFF768FD801B02286C
:100A10001ED820688007F7D42878000729D57948A0
:100A200069696C3000298046016812D041F00101EB
:100A30000160FFF753FD064605E000BFFFF74EFDDE
:100A4000801B022804D8D8F800008007F6D510E0F3
:100A500089E021F001010160FFF740FD064604E056
:100A6000FFF73CFD801B02287DD8D8F800008007E6
:100A7000F6D4287840076BD5DFF8888108F138086C
:100A8000D8F80000C0000BD4D8F8001041F0805115
:100A9000C8F80010D8F80000012700F0805000903E
:100AA00059480168C90512D40168834641F4807130
:100AB0000160FFF713FD064605E000BFFFF70EFDDE
:100AC000801B64284FD8DBF80000C005F6D54D4EDA
:100AD000A868683601280AD008B1052811D0306806
:100AE00020F001003060306820F0040002E030683F
:100AF00040F001003060A868A0B1FFF7EFFC83462A
:100B00000CE0306840F004003060F0E7FFF7E6FCEE
:100B1000A0EB0B0141F28830814268D83068800731
:100B2000F4D50EE0FFF7DAFC834607E0FFF7D6FCCA
:100B3000A0EB0B0141F28830814258D83068800721
:100B4000F4D42FB1D8F8001021F08051C8F800106B
:100B5000A869E0B3D9F80010C1F3810102294ED091
:100B60000228206800E042E020F08070206003D07E
:100B7000FFF7B4FC05463DE0FFF7B0FC064604E095
:100B8000FFF7ACFC801B022831D820688001F7D425
:100B9000D5E90921DFF874C0D5E9070695F83030AA
:100BA0004F0895F82C1030430CEB074545EA8212AC
:100BB000104340EA016040EA0370CAF80000206870
:100BC00040F080702060FFF789FC054605E014E0E6
:100BD000FFF784FC401B022809D820688001F7D564
:100BE0000BE000BFFFF77AFC401B022802D903206C
:100BF000BDE8F88F20688001F4D40020F8E70120D8
:100C0000F6E7000008380240007000400000FFFFD7
:100C100004284FF0E020016903D021F004010161B4
:100C2000704741F00401FAE77047401EB0F1807F41
:100C300010B501D3012010BD4FF0E02460610F21F9
:100C4000601700F0D9F80020A0610721216110BDD4
:100C500010B5FFF7E9FF10BDFEE700002DE9F04FEA
:100C60005C4887B0016841F010010160016801F043
:100C700010010591016841F020010160016801F057
:100C800020010591016841F080010160016801F0D7
:100C900080010591016841F004010160016801F0E3
:100CA00004010591016841F001010160016801F052
:100CB00001010591016841F008010160016801F03E
:100CC00008010591016841F040010160016801F0EF
:100CD00040010591016841F00201016000680022B5
:100CE000DFF8F4B0082100F0020005905846FFF745
:100CF000EFFB40F20117394800223946FFF7E8FBC5
:100D00004FF40068364800224146FFF7E1FB3548C2
:100D100000221121FFF7DCFB4FF40049324800228A
:100D20004946FFF7D5FB4FF4C07A304800225146C0
:100D3000FFF7CEFB01256946032608200024CDE9F4
:100D40000005CDE902465846FFF7D6FA00976946F6
:100D500003962248CDE90154FFF7CEFA68020090CD
:100D600002271F48CDE90174694603940494FFF7F4
:100D7000C3FA28020090CDE901741D486946039426
:100D80000494FFF7B9FACDF8008069460396144839
:100D9000CDE90154FFF7B0FA11206946CDE900050D
:100DA0001048CDE90246FFF7A7FACDF80090694652
:100DB00003960D48CDE90154FFF79EFACDF800A047
:100DC000694603960948CDE90154FFF795FA07B043
:100DD000BDE8F08F3038024000100240001402409D
:100DE00000080240000C02400018024000040240CB
:100DF00000000240FEE77047090700284FEA116132
:100E000006DA00F00F0000F1E02080F8141D7047B2
:100E100000F1E02080F8001470477047704710B56B
:100E2000FFF762FBBDE81040FFF712BF2D4830B559
:100E300093B0016841F080510160006800F080507B
:100E400012902948016841F4404101600068022481
:100E50000DF1200C00F4404012906505012006229F
:100E6000D223CDE9064501048CE81C000B94CDE9A2
:100E700000016846FFF72EFD00B1FEE7FFF7DCFB3F
:100E800000B1FEE70DF13C0C00214FF4A0524FF4ED
:100E900080538CE80E000F20CDE90D0407210DA82A
:100EA000FFF700FC00B1FEE7002229461046FFF7DD
:100EB000C7FC002201204FF00041FFF7C1FCFFF703
:100EC00087FC4FF47A71B0FBF1F0FFF7AEFE04201F
:100ED000FFF79EFE0022501E1146FFF77BFB13B06A
:100EE00030BD00004038024000700040104A30B56C
:100EF0001048146800210F4B44F470041460083348
:100F000005680D4A0D4C45F0010505601960036840
:100F1000051D1340074A03600C322C600568E30589
:100F2000034C25F480250560803C1160236030BDB2
:100F300088ED00E000380240FFFFF6FE103000248C
:100F4000FEE702E008C8121F08C1002AFAD1704764
:100F50007047002001E001C1121F002AFBD1704739
:100F6000FFF7CAFAFFF762FFFFF778FE0122024897
:100F70001146FFF7ADFAFEE7001402400000000042
:100F8000000000000102030406070809AC0F000876
:100F90000000002010000000420F0008BC0F0008F5
:100FA0001000002000040000520F000801000000A3
:0C0FB00010000000000000000024F4000D
:04000005080001F9F5
:00000001FF
