:020000040800F2
:10000000200600200D0200082F170008F114000838
:100010002D170008F5020008491B00080000000029
:10002000000000000000000000000000251A000889
:10003000B50300080000000053170008271A000845
:1000400027020008270200082702000827020008EC
:1000500027020008270200082702000827020008DC
:10006000270200082702000827020008F9020008FA
:1000700005030008270200082702000827020008DD
:1000800027020008270200082702000827020008AC
:10009000270200082702000827020008270200089C
:1000A000270200082702000827020008270200088C
:1000B000270200082702000827020008270200087C
:1000C000270200082702000827020008270200086C
:1000D000270200082702000827020008270200085C
:1000E000270200082702000827020008270200084C
:1000F000270200082702000827020008270200083C
:10010000270200082702000827020008270200082B
:10011000270200082702000827020008270200081B
:10012000270200082702000827020008270200080B
:1001300027020008270200082702000827020008FB
:1001400027020008270200082702000827020008EB
:1001500027020008270200082702000827020008DB
:1001600027020008270200082702000827020008CB
:1001700027020008270200082702000800000000EC
:1001800027020008270200082702000827020008AB
:10019000270200082702000827020008270200089B
:1001A000270200082702000827020008270200088B
:1001B000270200082702000827020008270200087B
:1001C000270200082702000800000000270200089C
:1001D000270200082702000827020008270200085B
:1001E000270200082702000827020008270200084B
:1001F0002702000827020008DFF80CD000F068F89A
:10020000004800476D1B0008200600200648804774
:1002100006480047FEE7FEE7FEE7FEE7FEE7FEE7EB
:10022000FEE7FEE7FEE7FEE7F51A0008F901000821
:100230002DE9F05F0546002092469B46884606461B
:10024000814640241BE0284641464746224600F0AE
:100250002FF853465A46C01A914110D311461846FA
:10026000224600F016F82D1A67EB01084F46224689
:100270000120002100F00DF817EB00094E41201E6F
:10028000A4F10104DFDC484631462A464346BDE876
:10029000F09F202A04DB203A00FA02F10020704788
:1002A0009140C2F1200320FA03F3194390407047B4
:1002B000202A04DB203A21FA02F00021704721FABB
:1002C00002F3D040C2F12002914008431946704722
:1002D000064C074D06E0E06840F0010394E8070093
:1002E00098471034AC42F6D3FFF78AFFF01B0008A2
:1002F000101C0008FEE70000014800F05DB8000097
:10030000BC010020014800F057B800005C0100204B
:1003100001681823CAB2103AB2FBF3F2054B6FF32F
:100320000901032A9B5CC36500D9091D8165084644
:1003300070470000D81B000810B583694FF0C074E7
:10034000826A0146002053B1B3F5005F15D072B147
:10035000012A0CD0022A0AD0032A09D104E01AB1DA
:10036000012A06D0022A03D1C96AC90100D5012099
:1003700010BDC96AA142FAD010BD002AF7D0012AE7
:10038000F2D0022AF3D0032AF3D010BD30B50468AE
:10039000256825F480252560046863608368402B08
:1003A000036803D099600068C26030BD9A6000683D
:1003B000C16030BD704700002DE9F84304464FF09E
:1003C0000009644B0820CDF800904FF41652A56D3B
:1003D00094F85C101B682E68B3FBF2F700FA01F189
:1003E00031420FD021680A6852070BD50A6822F003
:1003F00004020A6094F85C108840A860606D40F0C8
:100400000100606594F85C104FF0010808FA01F0F3
:10041000304208D021684969090604D5A860606D9A
:1004200040F00200606594F85C100420884030427F
:1004300008D021680968890704D5A860606D40F07C
:100440000400606594F85C1010208840304218D099
:1004500021680968090714D5A86020680168490364
:1004600004D50068000308D5A16C07E00168C90540
:1004700003D4016821F008010160216C09B1204614
:10048000884794F85C1020208840304231D02168A1
:100490000968C9062DD5A86094F83500052820689C
:1004A000016806D0490347D5006800031DD4616C7C
:1004B0001CE021F0160101602068416921F08001F3
:1004C0004161206C08B9A06C20B12068016821F05E
:1004D0000801016094F85C303F229A40AA6084F8D9
:1004E000349084F83580216D1FE0E16B09B120461E
:1004F0008847606D00282BD0606DC00714D00520A0
:1005000084F835002068016821F00101016000983D
:10051000401C0090B84203D820680068C007F6D19C
:1005200084F8349084F83580E16C002910D001B053
:100530002046BDE8F04308470168C905D5D40368E3
:1005400023F01003036084F8349084F83580CCE7FE
:10055000BDE8F8830C0000202DE9F047044600F0C8
:100560009DF9054664B14FF0000984F834900221EA
:1005700084F835102068016821F0010101600EE067
:100580000120BDE8F08700BF00F088F9401B052876
:1005900005D920216165032084F83500F1E7206842
:1005A0000068C007F0D1D4E90020D4E90251D4E9B1
:1005B000043C284304F1180519430843116895E8E1
:1005C000E00140EA0C001C4B2843194040EA0600B9
:1005D00040EA0700B8F1040F40EA010003D1D4E972
:1005E0000B1319430843106020680126656A4069AF
:1005F000042D20F0070045EA00050CD1D4E90A01DA
:10060000054341B12046FFF797FE20B140206065C9
:1006100084F83560B4E7206845612046FFF778FE2E
:1006200094F85C303F229A408260C4F8549084F879
:1006300035600020A5E700003F8010E02DE9F04183
:10064000044690F8340000250128A66D0ED094F8D9
:1006500035C00127002084F83470BCF1010F07D0A9
:10066000022584F834002846BDE8F0810220FBE72B
:10067000022784F8357060652046FFF787FE94F8FE
:100680005C103F208840B0602068016841F016018E
:1006900001602068416941F080014161206C20B116
:1006A0002068016841F0080101602068016841F09C
:1006B00001010160D7E700002DE9F84FDFF89CE168
:1006C00000224FF001084FF0030B4FF00F0A00BF5C
:1006D0000B6808FA02F42340A34271D14D68022D41
:1006E00001D0122D0FD1D5080E69570700EB8505F3
:1006F000A9462D6AFF0E0AFA07FCBE4025EA0C0542
:100700002E43C9F820600F79550006680BFA05FCE6
:1007100007F0030726EA0C06AF40374307604E6830
:10072000012E05D0022E03D0112E01D0122E0ED193
:100730008668CF6826EA0C06AF4037438760466874
:100740000F79A643C7F30017974037434760C46843
:100750008E6824EA0C04AE402643C6604C68E40070
:1007600075D53F4C256845F480452560246822F006
:100770000306950704F4804400943A4C2D0F264458
:10078000D6F80848DFF8E0C00AFA05F7604524EA21
:10079000070401D100272EE0344FB84201D10127D0
:1007A00029E0334FB84201D1022724E0314FB8424B
:1007B00001D103271FE0304FB84202D104271AE0CD
:1007C00045E02E4FB84201D1052714E02C4FB84226
:1007D00001D106270FE02B4FB84201D107270AE0CD
:1007E000294FB84201D1082705E0284FB84201D16E
:1007F000092700E00A27AF4027437546C6F8087866
:100800004E68DEF80040F60324EA030400D51C43DA
:10081000124E2C60361D4D683468AD0324EA030483
:1008200000D51C430D4F346008374D683C68ED021D
:1008300024EA030400D51C43084D3C600C354E6887
:100840002C68B60224EA030400D51C432C60521C19
:10085000102AFFF43DAFBDE8F88F0000003C0140D6
:1008600044380240003001400000024000040240D1
:1008700000080240000C0240001002400014024038
:1008800000180240001C02400020024000240240E8
:100890000AB1816170470904FBE7000001488068E4
:1008A000704700000000002002488168027811446F
:1008B0008160704700000020032010B500F096F81A
:1008C000002000F005F800F023F8002010BD000023
:1008D00070B50D4D04464FF47A700C4A29781268B1
:1008E000B0FBF1F0B2FBF0F000F0EBFD48B9102CDA
:1008F00007D200222146501E00F058F800206C60FC
:1009000070BD012070BD0000000000200C00002020
:100910001F4808B5016841F080510160006800F08F
:10092000805000901A48001D016841F48041016028
:10093000006800F480400090032000F057F8002287
:100940006FF00B00114600F031F800226FF00A0042
:10095000114600F02BF800226FF00900114600F05C
:1009600025F80022501F114600F020F80022101F29
:10097000114600F01BF80022901E114600F016F8F8
:100980000022BDE80840501E114600F00FB80000DC
:1009900040380240410900F01F028900012001F1A6
:1009A000E0219040C1F80001704700000E4BF0B408
:1009B0001B680D46C3F30223C3F10706042E00D9BA
:1009C0000426191D072901D2002300E0DB1E0124A3
:1009D00004FA06F19C40491E2940641E99401440C7
:1009E0002143F0BC00F0A4BE0CED00E0064900F08D
:1009F000070210B54FF6FF040868044B204040EA98
:100A000002201843086010BD0CED00E00000FA055C
:100A10001848F8B5016841F0805101600068164C33
:100A200000F080500090206840F480302060FFF794
:100A300035FF4FF47A76054605E000BFFFF72EFF3D
:100A4000401BB0420FD86068C003F7D5206840F45F
:100A500000302060FFF722FF054606E0FFF71EFF8B
:100A6000401BB04201D90320F8BD60688003F5D572
:100A70000020F8BD40380240007000402DE9F047EA
:100A800005000F4663D0444E306800F00F00B842B6
:100A900009D2306820F00F0038433060306800F031
:100AA0000F00B84253D128683C4C810712D540074B
:100AB00003D5206840F4E05020602878000703D573
:100AC000206840F460402060A968206820F0F000B1
:100AD000084320602878C0072AD030496868083960
:100AE000012810D00968022810D0890700292EDAC1
:100AF000216821F0030101432160FFF7CFFE80460A
:100B000041F288390DE009688903EFE78901EDE7D3
:100B1000FFF7C4FEA0EB0801494502D90320BDE858
:100B2000F0876868216801F00C01B1EB800FEFD10C
:100B3000306800F00F00B8420BD9306820F00F0089
:100B400038433060306800F00F00B84201D0012017
:100B5000E5E72878400705D5E968206820F4E050EB
:100B6000084320602878000706D52869216821F409
:100B7000604141EAC000206000F01CF82168084A8A
:100B8000C1F30311515CC840064908600020FFF71B
:100B90009FFE0020C3E70000003C024008380240EE
:100BA000E01B00080C0000200148006870470000AE
:100BB0000C000020154910B51548096811F00C0209
:100BC00013D01449042A0FD0082A0ED10F4C241F29
:100BD0002268236802F03F025B0207D52068C0F359
:100BE0008810A0FB010106E0084610BD2168C1F392
:100BF0008811A1FB00010023FFF71AFB2168C1F354
:100C00000141491C4900B0FBF1F010BD0838024019
:100C10000024F4000080BB00F0B50D461F49204CB5
:100C2000002887B016464FF000004FF002020F6810
:100C30004FF0030319D047F004070F60096801F073
:100C40000401059111020091CDE90120CDE90330A5
:100C500014486946FFF730FD206845EAC60120F0D8
:100C600078400843206007B0F0BD47F001070F60EF
:100C7000096801F0010105914FF480710091CDE9FF
:100C80000120CDE9033008486946FFF715FD2068CB
:100C9000354320F0EC602843E4E7000030380240A0
:100CA0000838024000080240000002402DE9F84FD9
:100CB00005004FF000076ED02878DFF82093A9F1E7
:100CC000040AC007AAF104044CD0D9F80010484621
:100CD000C1F38101012908D00068C0F38100022816
:100CE0000AD1DAF80000400206D52068800339D521
:100CF00068680028DFD035E06868B0F5803F0BD029
:100D000010B1B0F5A02F11D0206820F48030206001
:100D1000206820F4802002E0206840F480302060C9
:100D2000686890B1FFF7BAFD06460AE0206840F413
:100D300080202060F0E700BFFFF7B0FD801B642833
:100D400072D820688003F7D50CE0FFF7A7FD0646B0
:100D500005E000BFFFF7A2FD801B6428F0D82068E3
:100D60008003F7D42878800742D5D9F80010484688
:100D700011F00C0F08D00068C0F3810002280BD1DD
:100D8000DAF80000400207D42068800718D5E86828
:100D9000012800D114E01EE1E8680028206817D07F
:100DA00040F001002060FFF779FD064605E000BF36
:100DB000FFF774FD801B0228C2D820688007F7D592
:100DC0002869216821F0F80141EAC00020600FE0A5
:100DD00020F001002060FFF761FD064605E000BF3E
:100DE000FFF75CFD801B02281ED820688007F7D41F
:100DF0002878000729D5794869696C300029804630
:100E0000016812D041F001010160FFF747FD06467D
:100E100005E000BFFFF742FD801B022804D8D8F888
:100E200000008007F6D510E089E021F001010160A3
:100E3000FFF734FD064604E0FFF730FD801B022873
:100E40007DD8D8F800008007F6D4287840076BD505
:100E5000DFF8888108F13808D8F80000C0000BD40A
:100E6000D8F8001041F08051C8F80010D8F8000000
:100E7000012700F08050009059480168C90512D43C
:100E80000168834641F480710160FFF707FD064663
:100E900005E000BFFFF702FD801B64284FD8DBF898
:100EA0000000C005F6D54D4EA868683601280AD066
:100EB00008B1052811D0306820F00100306030689A
:100EC00020F0040002E0306840F001003060A868C3
:100ED000A0B1FFF7E3FC83460CE0306840F004006B
:100EE0003060F0E7FFF7DAFCA0EB0B0141F288304D
:100EF000814268D830688007F4D50EE0FFF7CEFC59
:100F0000834607E0FFF7CAFCA0EB0B0141F28830F3
:100F1000814258D830688007F4D42FB1D8F8001037
:100F200021F08051C8F80010A869E0B3D9F800108A
:100F3000C1F3810102294ED00228206800E042E07E
:100F400020F08070206003D0FFF7A8FC05463DE04C
:100F5000FFF7A4FC064604E0FFF7A0FC801B022874
:100F600031D820688001F7D4D5E90921DFF874C0B1
:100F7000D5E9070695F830304F0895F82C10304326
:100F80000CEB074545EA8212104340EA016040EA53
:100F90000370CAF80000206840F080702060FFF7FE
:100FA0007DFC054605E014E0FFF778FC401B0228B5
:100FB00009D820688001F7D50BE000BFFFF76EFC71
:100FC000401B022802D90320BDE8F88F2068800169
:100FD000F4D40020F8E70120F6E7000008380240CA
:100FE000007000400000FFFF70472DE9F04704004B
:100FF00005D094F85D000025A56218B107E0012036
:10100000BDE8F087204684F85C5000F051F80222D9
:1010100084F85D204FF4E0632068016821F040010E
:101020000160E068984201D9002101E04FF480514D
:10103000B0F5706F02D0984200D0A5624FF0010960
:10104000266B2EB9984201D9226301E0C4F8309092
:10105000D4E90468D4E90102278B46EA0806A36AAA
:10106000104307F4007830432668D4E907C240EA09
:10107000080040EA0C00CC460427104318433060B7
:10108000D4F81880666B606AE26807EA184723683C
:1010900030433A431043084358602068C16921F443
:1010A0000061C161256684F85DC00020A8E70000EA
:1010B0002DE9F04780463548334C00250221D8F809
:1010C000003003220615C714A34286B04FF400591E
:1010D0004FF4807A29D1036843F4804303600068A9
:1010E000052300F4804005904FF420408DE8230054
:1010F00027486946CDE90323FFF7DEFA254C4FF078
:1011000090522549234826C484E8E0066561A5611C
:101110000C3CFFF721FA08B17A2130E0C8F85840BA
:10112000C4F8388006B0BDE8F0871C4CA342F9D162
:10113000036843F4004303600068062300F40040A2
:1011400005904FF4A0508DE8230015486946CDE97D
:101150000323FFF7B1FA134C0F48183820604FF4FF
:1011600080306560A5600C3484E8E006C4E90505BC
:101170000C480C3CFFF7F0F90028CFD0A4210AA0BE
:1011800000F0E3FCCAE700000038004040380240AD
:10119000000402405C01002028600240003C004046
:1011A00000080240BC0100202E2E2F5372632F73C3
:1011B000746D3332663778785F68616C5F6D737019
:1011C0002E6300002DE9F041044604200026A368A8
:1011D0001BB96568B5F5827F0ED094F85C50012D7F
:1011E00013D094F85DC00127002584F85C70BCF131
:1011F000010F0DD0022662E084F85D002046BDE8B4
:10120000F04113460A4600F075B80220BDE8F081AF
:1012100059B352B32164B3F5004F84F85D002566DD
:10122000E5642565A587A4F84420A4F84620E58751
:1012300004D12068016821F480410160E0684FF426
:10124000E061884204D8A06D8069B0F5005F0CD0E1
:101250002068426822F400524260E06888422068B8
:10126000416804D921F4805103E0012627E041F4CC
:1012700080514160A06D14490164A16D1348C86399
:10128000A16D1348C864A06D0565B4F846302168A7
:10129000226CA06D0C31FFF7D1F920680168490676
:1012A00003D4016841F0400101602068416841F0C9
:1012B000200141602068416841F0010141603046F1
:1012C00084F85C50A2E70000771700088B1700082D
:1012D00055170008002202481021FFF7D9BA000074
:1012E00000180240012202481021FFF7D1BA000085
:1012F000001802402DE9F041044690F85C000026F9
:1013000001280DD094F85D700120D4F804C00025A8
:10131000012F84F85C000FD0BCF5827F0AD102E077
:101320000220BDE8F081D4F808C0BCF1000F01D163
:10133000042F01D0022692E011B30AB303B394F84C
:101340005D70042F02D0052784F85D702566A163C7
:10135000A387E3872264A4F84430A4F84630E56408
:10136000256521684A6822F4C0424A60E168B1F507
:10137000E06F07D92068416821F48051416031E075
:1013800001266CE021684FF400524B6843F480530F
:101390004B60616D896991420CD194F83C10C9078A
:1013A00021684B685FD043F480434B60E18F00EBD2
:1013B0005101E187A16D8969914213D121684A6881
:1013C00022F480524A60B4F84610C90751D021680F
:1013D0004A6842F400524A60B4F8461000EB5100EB
:1013E000A4F8460094F85D00A16D04284AD028486E
:1013F00008642848A16DC863A06D2749C164A06D29
:101400000565B4F846302168226CA06D0C31FFF7F9
:1014100015F92068416841F001014160606D056483
:10142000606DC563606DC564606D0565E38F22689E
:10143000A16B606D0C32FFF701F920680168490665
:1014400003D4016841F0400101602068416841F027
:10145000200141602068416841F00201416030464E
:1014600084F85C505DE723F480434B60E18F4908CA
:101470009FE72068416821F400514160B4F84600BC
:101480004008ADE7054808640548A16DB3E70000D2
:1014900081170008E11700085517000877170008A2
:1014A0008B1700087047704704284FF0E02001694F
:1014B00003D021F004010161704741F00401FAE713
:1014C0007047401EB0F1807F10B501D3012010BDE0
:1014D0004FF0E02460610F21601700F029F900202F
:1014E000A0610721216110BD10B5FFF7E9FF10BD14
:1014F000FEE700002DE9F04F604887B0016841F039
:1015000010010160016801F010010591016841F0CE
:1015100020010160016801F020010591016841F09E
:1015200080010160016801F080010591016841F0CE
:1015300002010160016801F002010591016841F0BA
:1015400040010160016801F040010591016841F02E
:1015500004010160016801F004010591016841F096
:1015600001010160016801F001010591016841F08C
:101570000801016000680022DFF804A1082100F0E2
:10158000080005905046FFF783F9DFF8F8B040F205
:101590000117002239465846FFF77AF93A480022E7
:1015A00048F21C01FFF774F94FF400683748002235
:1015B0004146FFF76DF9364800221121FFF768F91F
:1015C0004FF4C079334800224946FFF761F90126FC
:1015D0006946032508200024CDE90006CDE902452F
:1015E0005046FFF769F8CDE90245CDE90076694636
:1015F0005846FFF761F8022769461C20CDE900062E
:101600002148CDE90247FFF757F870026946CDE956
:1016100000071E48CDE902450494FFF74DF830025B
:101620006946CDE900071C48CDE902450494FFF75F
:1016300043F816486946CDE90245CDE90086FFF733
:101640003BF811206946CDE900061148CDE9024575
:10165000FFF732F8F0036946CDE900060A48CDE904
:101660000245FFF729F80B486946CDE90245CDE967
:101670000096FFF721F807B0BDE8F08F3038024040
:10168000001002400014024000180240000802400E
:10169000000C024000040240000002402DE9F0412D
:1016A0000E4F00210E48012202253C15530207600F
:1016B0004FF47066C0E90114072401624162C0E979
:1016C0000A1401634163C0E90523C0E90365FFF71C
:1016D0008CFC002800D0FEE7BDE8F0810038004017
:1016E000100000202DE9F0410E4F00210E4801228C
:1016F00002253C15530207604FF47066C0E90114DF
:10170000072401624162C0E90A1401634163C0E930
:101710000523C0E90365FFF768FC002800D0FEE759
:10172000BDE8F081003C004074000020FEE77047F7
:10173000090700284FEA116106DA00F00F0000F1F6
:10174000E02080F8141D704700F1E02080F80014BC
:101750007047704710B5806B012201684B6823F019
:1017600003034B60016E41F01001016680F85D20BB
:10177000FFF73AFC10BD10B5806BFFF7B3FD10BD4D
:1017800010B5806BFFF78FFE10BD70B5846B0546FA
:10179000FFF784F8024628680068C0051CD420685A
:1017A000416821F0200141602068416821F0030177
:1017B00041606421204600F041F808B120202066F5
:1017C0000021A4F84610012084F85D00206E18B1B5
:1017D0002046FFF709FC70BD2046FFF77BFD70BD7A
:1017E00070B5846B0546FFF759F802462868006813
:1017F000C0051FD42068416821F0200141606421A8
:10180000204600F055F818B1206E40F02000206608
:10181000206800210122436823F003034360E1872D
:10182000A4F8461084F85D20206E18B12046FFF71A
:10183000DBFB70BD2046FFF735FE70BD2DE9F84398
:10184000044640684FF482761546B04289464FF40C
:1018500000474FF4806809D1A068B84201D04045E4
:1018600004D12068016821F04001016000224B464C
:1018700080212046009500F08FF880B96068B04262
:1018800014D1A068B84201D040450FD100224B4688
:101890004FF4C0612046009500F02EF830B1206E64
:1018A00040F0200020660320BDE8F8830020FBE71D
:1018B000F8B515460E4604460B464FF4C05100924B
:1018C000002200F019F888B9002233468021204612
:1018D000009500F061F848B9002233464FF4C0612A
:1018E0002046009500F008F8002804D0206E40F053
:1018F000200020660320F8BD2DE9F8434FF4C068AE
:101900001D4617460E46DDF8209004463DE046454C
:1019100005D127B9007B8DF800009DF80000681CF8
:1019200033D02DB1FEF7BAFFA0EB0900A8422CD3AB
:101930002068416821F0E00141606068B0F5827F75
:101940000BD1A068B0F5004F02D0B0F5806F04D184
:101950002068016821F040010160A06AB0F5005FD5
:101960000AD120684DF6FF720168114001602068BD
:10197000016841F400510160012184F85D100020EC
:1019800084F85C000320BDE8F8832068816831405A
:10199000B942BCD10020F6E72DE9F0411D461646BC
:1019A0000F460446DDF8188035E0681C33D02DB1B1
:1019B000FEF774FFA0EB0800A8422CD32068416812
:1019C00021F0E00141606068B0F5827F0BD1A06832
:1019D000B0F5004F02D0B0F5806F04D120680168E7
:1019E00021F040010160A06AB0F5005F0AD12068D3
:1019F0004DF6FF720168114001602068016841F4F2
:101A000000510160012184F85D10002084F85C0021
:101A10000320BDE8F081206880683840B042C4D11E
:101A20000020F6E7704710B5FEF73EFFBDE8104016
:101A3000FFF75ABD2D4830B593B0016841F0805191
:101A40000160006800F0805012902948016841F45C
:101A500040410160006802240DF1200C00F4404078
:101A60001290650501200622D223CDE90645010426
:101A70008CE81C000B94CDE900016846FFF716F9CD
:101A800000B1FEE7FEF7C4FF00B1FEE70DF13C0C2C
:101A900000214FF4A0524FF480538CE80E000F2029
:101AA000CDE90D0407210DA8FEF7E8FF00B1FEE720
:101AB000002229461046FFF7AFF8002201204FF020
:101AC0000041FFF7A9F8FFF76FF84FF47A71B0FB08
:101AD000F1F0FFF7F6FC0420FFF7E6FC0022501EB1
:101AE0001146FEF763FF13B030BD000040380240DE
:101AF00000700040104A30B51048146800210F4BA8
:101B000044F470041460083305680D4A0D4C45F028
:101B10000105056019600368051D1340074A03604D
:101B20000C322C600568E305034C25F48025056024
:101B3000803C1160236030BD88ED00E00038024039
:101B4000FFFFF6FE10300024FEE7FEE702E008C8C3
:101B5000121F08C1002AFAD170477047002001E027
:101B600001C1121F002AFBD17047000008B5FEF723
:101B7000A3FEFFF75FFFFFF7BDFC1448016841F4C7
:101B80000011016000680022114600F4001000906E
:101B90000B20FEF70BFF0B20FEF7FCFE00220C20B3
:101BA0001146FEF703FF0C20FEF7F4FEFFF79AFD47
:101BB000FFF774FD06494222A1F1C800FFF702FBBE
:101BC000012204481146FEF763FEFEE7303802406A
:101BD000D80000200014024000061016000610165F
:101BE00000000000000000000102030406070809CD
:101BF000101C000800000020100000004C1B000812
:101C0000201C000810000020100600005C1B0008CB
:101C10000100000010000000000000000024F4009B
:04000005080001F9F5
:00000001FF
