:020000040800F2
:10000000489005200D020008373700085D330008CE
:100010003537000875040008715C00080000000016
:100020000000000000000000000000001B45000868
:100030005905000800000000FF3700081D450008B2
:1000400027020008270200082702000827020008EC
:1000500027020008270200082702000827020008DC
:100060002702000827020008270200087904000878
:1000700027020008270200082702000827020008BC
:1000800027020008270200082702000827020008AC
:10009000270200082702000827020008270200089C
:1000A000270200082702000827020008270200088C
:1000B000270200082702000827020008270200087C
:1000C000270200082702000827020008270200086C
:1000D000270200082702000827020008270200085C
:1000E0005D05000827020008270200082702000813
:1000F00027020008654600082702000827020008BA
:10010000270200082702000827020008270200082B
:10011000270200082702000827020008270200081B
:10012000850400082702000827020008910400083F
:1001300027020008270200082702000827020008FB
:100140002702000827020008270200085D37000880
:100150009D040008A90400082702000827020008DF
:1001600027020008270200082702000827020008CB
:1001700027020008270200082702000800000000EC
:1001800027020008270200082702000827020008AB
:10019000270200082702000827020008270200089B
:1001A000270200082702000827020008270200088B
:1001B000270200082702000827020008270200087B
:1001C000270200082702000800000000270200089C
:1001D000270200082702000827020008270200085B
:1001E000270200082702000827020008270200084B
:1001F0002702000827020008DFF80CD000F0A2F860
:1002000000480047F17000084890052006488047E4
:1002100006480047FEE7FEE7FEE7FEE7FEE7FEE7EB
:10022000FEE7FEE7FEE7FEE711460008F9010008D9
:100230002DE9F05F0546002092469B46884606461B
:10024000814640241BE0284641464746224600F0AE
:1002500069F853465A46C01A914110D311461846C0
:10026000224600F050F82D1A67EB01084F4622464F
:100270000120002100F047F817EB00094E41201E35
:10028000A4F10104DFDC484631462A464346BDE876
:10029000F09F40EA01039B0703D009E008C9121F41
:1002A00008C0042AFAD203E011F8013B00F8013B30
:1002B000521EF9D27047D2B201E000F8012B491E5C
:1002C000FBD270470022F6E710B513460A460446F3
:1002D0001946FFF7F0FF204610BD30B50B4601462A
:1002E00000202022012409E021FA02F59D4205D3D5
:1002F00003FA02F5491B04FA02F52844151EA2F17F
:100300000102F1DC30BD202A04DB203A00FA02F1C0
:10031000002070479140C2F1200320FA03F31943F3
:1003200090407047202A04DB203A21FA02F0002195
:10033000704721FA02F3D040C2F1200291400843F5
:1003400019467047064C074D06E0E06840F001038F
:1003500094E8070098471034AC42F6D3FFF750FFFB
:1003600094770008B477000870B58C1810F8015B1A
:1003700015F0070301D110F8013B2A1106D110F83E
:10038000012B03E010F8016B01F8016B5B1EF9D142
:100390002B0705D40023521E0DD401F8013BFAE7C8
:1003A00010F8013BCB1A921C03E013F8015B01F833
:1003B000015B521EF9D5A142D8D3002070BD0020A8
:1003C00070470020704700207047002070470020D1
:1003D0007047002070470020704700000146014828
:1003E00002F059B8944B0120044810B502F065F8AA
:1003F000042801D0012010BD002010BD944B012025
:1004000038B501208DF800009DF80000012801D0CA
:10041000022038BD064802F066F8040006D1044800
:100420004FF4006101F0FEFE00B10124204638BD0A
:10043000944B012038B50024009313460A46014628
:10044000034802F00BF900B10124204638BD00003A
:10045000944B012038B50024009313460A46014608
:10046000034802F0D3F900B10124204638BD000052
:10047000944B0120FEE70000014800F0C5B80000E1
:10048000487A0220014800F0BFB80000A87A022094
:10049000014800F0B9B80000087B0220014800F0D4
:1004A000B3B80000E8790220014800F0ADB80000C0
:1004B000687B022001681823CAB2103AB2FBF3F23B
:1004C000054B6FF30901032A9B5CC36500D9091D25
:1004D0008165084670470000E076000810B5836922
:1004E0004FF0C074826A0146002053B1B3F5005F3B
:1004F00015D072B1012A0CD0022A0AD0032A09D1E0
:1005000004E01AB1012A06D0022A03D1C96AC9013E
:1005100000D5012010BDC96AA142FAD010BD002A41
:10052000F7D0012AF2D0022AF3D0032AF3D010BD6B
:1005300030B50468256825F480252560046863606B
:100540008368402B036803D099600068C26030BDA7
:100550009A600068C16030BD704700002DE9F0412D
:10056000282000F05FFB134C0025134F0126207854
:1005700018B12570002266700BE006F09FFFA0788E
:1005800028B101220D481146A57000F0C9FA0122D8
:1005900026701021384600F0C3FA4FF4005000F0E6
:1005A000C7F94FF4004000F0C3F9BDE8F04128203E
:1005B00000F043BBA80000200018024000140240D5
:1005C000002200F001B800000E4B70B505465C7AC1
:1005D0000120002C14D15E7A03F108009C555E7A4C
:1005E00003EB860675605D7A2A54587A421C5A726B
:1005F0003A232F22303008704B7020468A70CC701E
:1006000070BD00003CB003202DE9F84304464FF0D4
:100610000009644B0820CDF800904FF41652A56DE8
:1006200094F85C101B682E68B3FBF2F700FA01F136
:1006300031420FD021680A6852070BD50A6822F0B0
:1006400004020A6094F85C108840A860606D40F075
:100650000100606594F85C104FF0010808FA01F0A1
:10066000304208D021684969090604D5A860606D48
:1006700040F00200606594F85C100420884030422D
:1006800008D021680968890704D5A860606D40F02A
:100690000400606594F85C1010208840304218D047
:1006A00021680968090714D5A86020680168490312
:1006B00004D50068000308D5A16C07E00168C905EE
:1006C00003D4016821F008010160216C09B12046C2
:1006D000884794F85C1020208840304231D021684F
:1006E0000968C9062DD5A86094F83500052820684A
:1006F000016806D0490347D5006800031DD4616C2A
:100700001CE021F0160101602068416921F08001A0
:100710004161206C08B9A06C20B12068016821F00B
:100720000801016094F85C303F229A40AA6084F886
:10073000349084F83580216D1FE0E16B09B12046CB
:100740008847606D00282BD0606DC00714D005204D
:1007500084F835002068016821F0010101600098EB
:10076000401C0090B84203D820680068C007F6D14A
:1007700084F8349084F83580E16C002910D001B001
:100780002046BDE8F04308470168C905D5D4036891
:1007900023F01003036084F8349084F83580CCE7AC
:1007A000BDE8F883D00000202DE9F047044600F0B2
:1007B000BDF9054664B14FF0000984F83490022178
:1007C00084F835102068016821F0010101600EE015
:1007D0000120BDE8F08700BF00F0A8F9401B052804
:1007E00005D920216165032084F83500F1E72068F0
:1007F0000068C007F0D1D4E90020D4E90251D4E95F
:10080000043C284304F1180519430843116895E88E
:10081000E00140EA0C001C4B2843194040EA060066
:1008200040EA0700B8F1040F40EA010003D1D4E91F
:100830000B1319430843106020680126656A40695C
:10084000042D20F0070045EA00050CD1D4E90A0187
:10085000054341B12046FFF741FE20B140206065CD
:1008600084F83560B4E7206845612046FFF722FE32
:1008700094F85C303F229A408260C4F8549084F827
:1008800035600020A5E700003F8010E02DE9F04131
:10089000044690F8340000250128A66D0ED094F887
:1008A00035C00127002084F83470BCF1010F07D057
:1008B000022584F834002846BDE8F0810220FBE7D9
:1008C000022784F8357060652046FFF731FE94F802
:1008D0005C103F208840B0602068016841F016013C
:1008E00001602068416941F080014161206C20B1C4
:1008F0002068016841F0080101602068016841F04A
:1009000001010160D7E7000070B5044600F00EF960
:100910000546601C02D004480078044400F006F943
:10092000401BA042FAD370BDC400002070470000F5
:10093000044910B50A68024202D00860FFF7F6FFCA
:1009400010BD0000143C01402DE9F84FDFF89CE198
:1009500000224FF001084FF0030B4FF00F0A00BFC9
:100960000B6808FA02F42340A34271D14D68022DAE
:1009700001D0122D0FD1D5080E69570700EB850560
:10098000A9462D6AFF0E0AFA07FCBE4025EA0C05AF
:100990002E43C9F820600F79550006680BFA05FC54
:1009A00007F0030726EA0C06AF40374307604E689E
:1009B000012E05D0022E03D0112E01D0122E0ED101
:1009C0008668CF6826EA0C06AF40374387604668E2
:1009D0000F79A643C7F30017974037434760C468B1
:1009E0008E6824EA0C04AE402643C6604C68E400DE
:1009F00075D53F4C256845F480452560246822F074
:100A00000306950704F4804400943A4C2D0F2644C5
:100A1000D6F80848DFF8E0C00AFA05F7604524EA8E
:100A2000070401D100272EE0344FB84201D101273D
:100A300029E0334FB84201D1022724E0314FB842B8
:100A400001D103271FE0304FB84202D104271AE03A
:100A500045E02E4FB84201D1052714E02C4FB84293
:100A600001D106270FE02B4FB84201D107270AE03A
:100A7000294FB84201D1082705E0284FB84201D1DB
:100A8000092700E00A27AF4027437546C6F80878D3
:100A90004E68DEF80040F60324EA030400D51C4348
:100AA000124E2C60361D4D683468AD0324EA0304F1
:100AB00000D51C430D4F346008374D683C68ED028B
:100AC00024EA030400D51C43084D3C600C354E68F5
:100AD0002C68B60224EA030400D51C432C60521C87
:100AE000102AFFF43DAFBDE8F88F0000003C014044
:100AF000443802400030014000000240000402403F
:100B000000080240000C02400010024000140240A5
:100B100000180240001C0240002002400024024055
:100B20000AB1816170470904FBE700000148806851
:100B300070470000C4000020024881680278114418
:100B400081607047C4000020032010B500F0A0F8B9
:100B5000002000F005F800F023F8002010BD000090
:100B600070B50D4D04464FF47A700C4A297812681E
:100B7000B0FBF1F0B2FBF0F002F0D9FA48B9102C5A
:100B800007D200222146501E00F062F800206C605F
:100B900070BD012070BD0000C4000020D000002006
:100BA0001F4808B5016841F080510160006800F0FD
:100BB000805000901A48001D016841F48041016096
:100BC000006800F480400090032000F061F80022EB
:100BD0006FF00B00114600F03BF800226FF00A00A6
:100BE000114600F035F800226FF00900114600F0C0
:100BF0002FF80022501F114600F02AF80022101F83
:100C0000114600F025F80022901E114600F020F851
:100C10000022BDE80840501E114600F019B800003F
:100C200040380240410900F01F028900012001F113
:100C3000E0219040C1F880017047410900F01F0297
:100C40008900012001F1E0219040C1F800017047C6
:100C50000E4BF0B41B680D46C3F30223C3F1070625
:100C6000042E00D90426191D072901D2002300E013
:100C7000DB1E012404FA06F19C40491E2940641E33
:100C8000994014402143F0BC02F056BD0CED00E049
:100C9000064900F0070210B54FF6FF040868044B40
:100CA000204040EA02201843086010BD0CED00E02F
:100CB0000000FA0501680123C0F8F433002280F82F
:100CC000EC238869044A40F000608861486D104355
:100CD000486500207047000003000010704700685E
:100CE000416200207047F0B503684FF000005C6A75
:100CF00031B19F6A4D1E4FF4827604EB17440BE02E
:100D000044EA0240986210E0471C06EB800053F86A
:100D100000C0F8B204EB1C44A842F5DB4FF480702D
:100D200000EB810044EA02421A500020F0BDD0F8E6
:100D3000FC0304F04EB8C1EBC10200EB8202D0F814
:100D4000FC03526C03F0BBBFC1EBC10200EB82029B
:100D5000D0F8FC03D2F8042204F006B8D0F8FC0363
:100D600004F039B801F07F030A4610B504460806BE
:100D7000C3EBC30004EB800101D5383101E001F57C
:100D8000FC71D0090B70487094F8B803012809D0A1
:100D9000012084F8B803206804F070FB002084F878
:100DA000B80310BD022010BD70B5044640680A4665
:100DB00001F00F01814201D9012070BD110602F03E
:100DC0007F0005D5C0EBC00104EB8101383105E09F
:100DD000C2EBC20104EB810101F5FC710025D209CF
:100DE0008D7008704A7094F8B803012809D001206A
:100DF00084F8B803206804F00AFD002084F8B85392
:100E000070BD022070BD10B5044690F8B8030128EB
:100E10000AD0012084F8B80320680A0606D501F03C
:100E20007F0104F079FE03E0022010BD04F064FEAF
:100E3000002084F8B80310BD70B50D46044605F0D7
:100E40007F000906C0EBC00104EB810101D53831F8
:100E500001E001F5FC71ED098A60CB704D700870FE
:100E600000D0C880022B4FF0000500D10D7194F81E
:100E7000B803012809D0012084F8B803206804F0E1
:100E80004FFA284684F8B85370BD022070BD70B583
:100E900001F07F050C460026C5EBC50100EB810182
:100EA000C1F80422C1E9833681F8F96181F8F8516B
:100EB00001F5FC710369012B00D10A616206027C15
:100EC000006803D004F004FD002070BD04F0E0FBD6
:100ED000FAE770B5044640680D4601F00F01814203
:100EE00001D9012070BD290605F07F0005D5C0EBB2
:100EF000C00104EB8101383105E0C5EBC50104EB0D
:100F0000810101F5FC710122EB098A7008704B70B8
:100F100094F8B803012807D084F8B823206804F0B7
:100F2000A8FC680602D007E0022070BD217C04F511
:100F30006F72206804F04CFC002084F8B80370BD88
:100F40002DE9F04101F07F050C460026C5EBC501F7
:100F5000012700EB81014A64C1E9133681F8397039
:100F600001F8385F0369012B00D10A616206027C37
:100F7000006804D004F0ACFC0020BDE8F08104F06F
:100F800087FBF9E72DE9F84F04460068002605467F
:100F900004F0F3FD00287CD1206804F018FE00283E
:100FA00077D0206804F013FE800702D52168022064
:100FB0004861206804F00BFE01034FF0010A04F5BC
:100FC0006F704FF0080B4FF0000900906ED520684D
:100FD00004F0DEFD074667E0F80763D02068F1B251
:100FE00004F0EDFD8046C00733D005EB4610C0F895
:100FF00008AB216901291CD1D5F8081B090406D5C5
:101000004FF40041C0F8081B2169012911D1D0F823
:10101000102BC6EBC60104EB8100C2F31202D0F81C
:1010200000128A1AC0F81022D0F804221144C0F825
:1010300004122046F1B2FFF787FE2069012808D18B
:101040003EB9D4F80C0220B920680121009A04F0BE
:10105000BFFB5FEA087013D52069012809D1D5F8D4
:10106000080B000405D505EB46114FF40040C1F80C
:10107000080B204600F018FB05EB4611C1F808BB31
:101080005FEAC86004D505EB46111020C1F8080BD3
:1010900000E015E25FEA886004D505EB46112020E8
:1010A000C1F8080B7F08761C002F95D1206804F04A
:1010B0008EFD40035DD5206804F063FD00260746E1
:1010C00055E0F80751D02068F1B204F068FD804681
:1010D000C00724D0D5F8342805EB46130AFA06F0E9
:1010E0008243C5F83428C3F808A92069012807D12C
:1010F000C6EBC60004EB8000D0E910211144416426
:101100002046F1B2FFF717FE2069012807D136B952
:10111000E06C20B920680121009A04F059FB5FEAD5
:10112000087003D505EB4611C1F808B95FEAC8603D
:1011300004D505EB46111020C1F808095FEA4860A4
:1011400004D505EB46114020C1F808095FEA887014
:1011500004D505EB46110220C1F808095FEA0860D2
:1011600003D53146204602F0FFFA7F08761C002F97
:10117000A7D1206804F02BFD002811DAD5F8040867
:1011800020F00100C5F8040894F8EC03012838D0D9
:10119000204600F06FFA00BF21684FF00040486120
:1011A000206804F014FD00050AD5D5F80808C0072A
:1011B00002D0204600F094FA21684FF400604861A4
:1011C000206804F004FD000109D521684FF000609B
:1011D000486194F8EC03D8B1204600F081FA206809
:1011E00004F0F5FCC0046BD5D5F8040820F001002C
:1011F000C5F804082068102104F08EFC0021FF22AD
:1012000027E00021204684F8EC93FFF767FDC3E751
:1012100084F8ECA32068406D0121C0F38300C4F87A
:10122000F0032046FFF75AFDD9E700BF05EB411058
:10123000C0F80829D0F8003923F40013C0F80039A9
:10124000C0F8082BD0F8003B23F40013C0F8003B93
:10125000491C60688842E9D84FF0FF30C5F818088B
:10126000D5F81C0840F00110C5F81C08206B60B1CF
:10127000D5F8840840F00B00C5F88408D5F8440878
:1012800040F00B00C5F844080BE0D5F8140840F016
:101290002B00C5F81408D5F8100840F00B00C5F86D
:1012A0001008D5F8000820F4FE60C5F80008217C7D
:1012B0002068009A04F08CFA21684FF4805048614D
:1012C000206804F084FC80047CD5206804F068F871
:1012D0002068C16821F47051C160206804F02EFCC0
:1012E00078B10321E1604020606100F07BFD754A28
:1012F000754902448A420AD22068C16841F470519B
:1013000058E0C4F80C904FF40071616136E06F4A08
:101310006F4902448A4204D22068C16841F4605196
:1013200048E06C4A6C4902448A4204D22068C16891
:1013300041F450513EE0694A694902448A4204D26C
:101340002068C16841F4405134E06649664A01446E
:10135000914204D22068C16841F430512AE0634AC6
:10136000634902448A4204D22068C16841F4205192
:1013700020E0604A604902448A4204D22068C16881
:1013800041F4105116E05D495D4A0144914204D296
:101390002068C16841F400510CE05A495A4A084497
:1013A00090422068C16803D241F4E05102E009E0B4
:1013B00041F4C051C160204600F04CF921684FF45F
:1013C00000504861206804F002FCC00637D5206850
:1013D000816921F010018161D5F8208008F00F01AA
:1013E000C8F34340C1EBC101022804EB810707F5B4
:1013F000FC7702D0062813D01CE047F6F07118EAFB
:10140000010F17D0C8F30A12F9689046284604F075
:10141000E2FBB969F8684144B9614044F86009E009
:1014200000990822284604F0D6FBB969C8F30A10CF
:101430000844B8612068816941F010018161206829
:1014400004F0C5FB000705D5204600F017F9216818
:10145000C1F814B0206804F0BAFBC00207D52046DA
:10146000F1B200F053F821684FF480104861206811
:1014700004F0ADFB800207D52046F1B200F04AF837
:1014800021684FF400104861206804F0A0FB400080
:1014900006D52046FFF74BFC21684FF0804048619D
:1014A000206804F094FB40070AD520684568680767
:1014B00002D52046FFF752FC20684168294341606D
:1014C000BDE8F88F405327FF00350C00401E1BFF7E
:1014D00040420F0000DC0BFF804F1200808CF9FEB1
:1014E00020D6130060B6E5FE60E3160000D3CEFE02
:1014F00040771B00C05BB3FEC091210000CA91FE83
:1015000020753800E05459FEE09C4100D0F8FC03FF
:1015100003F0CCBCD0F8FC0303F0CABCF0B5040067
:101520004FF000068BB056D0032084F8B903204654
:1015300000F05CF8206804F0A5F804F1100168469A
:1015400028220F46FEF7A5FE94E80F0003F042FFA5
:101550002068002104F04EFB012500223146C6EB35
:10156000C600761C04EB80000F2E80F8395080F8FE
:101570003810C18780F83B2002644264C264EDD316
:1015800000204FF4827300BFC0EBC00103EB800664
:1015900004EB810181F8F92181F8F801C88781F80D
:1015A000FB21C1F80022C1F80422C1F80C222168F5
:1015B0008A51401C0F28E7D3282239466846FEF797
:1015C00068FE94E80F0003F0A9FF606A84F8B9533D
:1015D000012803D005E001200BB0F0BD2046FFF745
:1015E00069FB206803F08DFF0020F5E710B5006867
:1015F00086B0B0F1A04F26D10221002203230A2495
:101600004FF4C0508DE81F0010486946FFF79CF961
:101610000F48016841F080010160006800F080001F
:1016200005900B481030016841F48041016000686A
:101630000022114600F4804005904320FFF708FB8C
:101640004320FFF7FAFA06B010BD00000000024088
:101650003438024010B50446C068012100B90021A9
:10166000D4F8FC0303F07BFCD4F8FC03BDE8104085
:1016700003F043BCD0F8FC0303F05FBCD0F8FC03DC
:1016800003F061BC10B5044690F8B803012809D0F6
:10169000012084F8B803206804F0C2FA002084F81E
:1016A000B80310BD022010BDD0F8FC2300F56F7107
:1016B000104603F067BC10B5044690F8B803012843
:1016C0000CD0012084F8B803206803F00EFF2068D6
:1016D00004F00CFA002084F8B80310BD022010BDFD
:1016E00010B50446D0F8FC0303F097FC2068D0F84E
:1016F000001E41F00101C0F8001E206A002804D03D
:101700000248016841F00601016010BD10ED00E0E3
:101710001848F8B5016841F0805101600068164C26
:1017200000F080500090206840F480302060FFF787
:10173000FDF94FF47A76054605E000BFFFF7F6F9AC
:10174000401BB0420FD86068C003F7D5206840F452
:1017500000302060FFF7EAF9054606E0FFF7E6F9FA
:10176000401BB04201D90320F8BD60688003F5D565
:101770000020F8BD40380240007000402DE9F84FCD
:1017800004460078DFF824944FF000063746C0077F
:101790000ED0D9F8001021F40001C9F80010D9F8D2
:1017A0000010626B1143C9F80010606B00B901268C
:1017B000FE4D2068843500030ED5E16B286820F4C7
:1017C000401008432860E06BB0F5801F01D010B1D5
:1017D00002E0012600E0012720684FF4800BC002E0
:1017E0000CD5216C286820F4400008432860206C48
:1017F000584501D1012601E000B901272068C10147
:1018000000D50126800666D5E8483830016841F0E9
:10181000805101600068DFF898A300F080500090CC
:10182000DAF8001041F48071CAF80010FFF77EF971
:10183000804605E0FFF77AF9A0EB080064287DD820
:10184000DAF80000C005F5D5DFF8608308F1680814
:10185000D8F8000010F440702AD0218E01F44071B5
:10186000814225D0D8F80010D8F8002021F440712A
:1018700042F48032C8F80020D8F8002022F48032E8
:10188000C8F80020C8F80010D8F80000C0070FD032
:10189000FFF74CF9824607E0FFF748F9A0EB0A0191
:1018A00041F288308142CAD8D8F800008007F3D5C9
:1018B000206BC0F3012103297ED0D9F8001021F458
:1018C000F811C9F80010228ED8F80010C2F30B02EC
:1018D0001143C8F800102078C00607D5286820F00A
:1018E000807028602868A16B084328602188AF4871
:1018F0008830490405D5626E016821F440311143F6
:1019000001602188090405D5A26E016821F44021F7
:10191000114301602168C90305D5E26E016821F415
:101920004011114301602168890305D5226F0168C8
:1019300021F4400111430160217800E034E14906BF
:1019400005D5626C016821F0030111430160217823
:10195000090605D5A26C016821F00C011143016054
:101960002188C90505D5E26C016821F030011143D9
:1019700001602188890505D5226D016821F0C0012B
:10198000114301602188490505D5626D016821F484
:101990004071114301602188090505D5A26D0168D8
:1019A00021F44061114301602188C90407D5E26D2B
:1019B000016821F4405100E05FE01143016021889B
:1019C000890405D5226E016821F44041114301606C
:1019D0002168490205D5A26F016821F08061114399
:1019E000016021684FF0006A890209D5E26F016841
:1019F00021F0006111430160E16F514500D10127E1
:101A000021680A0700D50127490305D5626F0168DF
:101A100021F04071114301602168090206D5D4F814
:101A20008020016821F08051114301602168490143
:101A300006D5D4F88420016821F0005111430160DB
:101A40002068000106D5D4F88810286820F00070BE
:101A5000084328602068C00006D5D4F88C10286898
:101A600020F0806008432860DFF84891012E0ED0F6
:101A70002068B0F1007F0AD08FE04F4AD9F80030DB
:101A8000104023F4F8120243C9F800201BE7D9F8EC
:101A900000004E4620F08060C9F80000FFF746F8CD
:101AA000804605E0FFF742F8A0EB080064287BD8E9
:101AB00030680001F6D421783C487C30C90712D048
:101AC000616B81B9237A62680168D0F800C0920125
:101AD000C1F3014142EA0142CCF3036142EA0161F0
:101AE00041EA0371016021680A0303D5E26BB2F594
:101AF000801F04D0C9021AD5216C594517D16368DB
:101B0000016894F80CC002689B01C1F3014143EAEB
:101B10000141C2F3027241EA0C6141EA02710160C3
:101B20002968626A21F01F01521E11432960216851
:101B3000C90110D5238A62680168D0F800C09201FB
:101B4000C1F3036142EA034242EA0162CCF302714B
:101B500042EA01710160216889010CD56168228A1D
:101B6000237B94F808C0890141EA024141EA0361FC
:101B700041EA0C7101603168B04641F0806131602A
:101B8000FEF7D4FF064604E0FEF7D0FF801B642872
:101B90000AD8D8F800000001F6D5E7B3D9F800005C
:101BA0004E4620F0805009E07BE0000008380240FB
:101BB0000070004000380240FFFCFF0FC9F8000031
:101BC000FEF7B4FF074604E0FEF7B0FFC01B642831
:101BD00067D83068C0438000F6D5216835480A03CD
:101BE00001D5E26B1AB1C9021DD5216CD9B963695F
:101BF0000168277E02689B01C1F3014143EA01436A
:101C0000C2F3027143EA076242EA01710160296886
:101C10006FF0FF0300E04BE0A26A21F4F85103EB00
:101C20000222114329602168890212D5E16F5145D2
:101C30000FD1238C6269016807689201C1F30361C7
:101C400042EA034242EA0162C7F3027142EA0171C9
:101C500001602178090716D561690268D0F800C0D3
:101C60008B01277FC2F30362CCF3014143EA0141B8
:101C700041EA026141EA077101602868E16A20F4E3
:101C8000403008432860306840F080503060FEF7F4
:101C90004DFF044608E000BFFEF748FF001B642824
:101CA00002D90320BDE8F88F3068C0438000F3D428
:101CB0000020F7E7883802402DE9F04705000F467D
:101CC00063D0444E306800F00F00B84209D230684B
:101CD00020F00F0038433060306800F00F00B84249
:101CE00053D128683C4C810712D5400703D52068A2
:101CF00040F4E05020602878000703D5206840F4C5
:101D000060402060A968206820F0F000084320604F
:101D10002878C0072AD0304968680839012810D0CF
:101D20000968022810D0890700292EDA216821F0DD
:101D3000030101432160FEF7F9FE804641F2883934
:101D40000DE009688903EFE78901EDE7FEF7EEFE94
:101D5000A0EB0801494502D90320BDE8F087686877
:101D6000216801F00C01B1EB800FEFD1306800F079
:101D70000F00B8420BD9306820F00F0038433060B4
:101D8000306800F00F00B84201D00120E5E7287864
:101D9000400705D5E968206820F4E050084320603A
:101DA0002878000706D52869216821F4604141EAB6
:101DB000C000206000F01CF82168084AC1F303113C
:101DC000515CC840064908600020FEF7C9FE0020AB
:101DD000C3E70000003C024008380240E8760008F3
:101DE000D00000200148006870470000D0000020AB
:101DF000154910B51548096811F00C0213D01449A3
:101E0000042A0FD0082A0ED10F4C241F2268236801
:101E100002F03F025B0207D52068C0F38810A0FBE8
:101E2000010106E0084610BD2168C1F38811A1FB3D
:101E300000010023FEF7FCF92168C1F30141491CB0
:101E40004900B0FBF1F010BD083802400024F40056
:101E50000080BB00F0B50D461F49204C002887B01C
:101E600016464FF000004FF002020F684FF00303D8
:101E700019D047F004070F60096801F004010591CB
:101E800011020091CDE90120CDE9033014486946E3
:101E9000FEF75AFD206845EAC60120F07840084365
:101EA000206007B0F0BD47F001070F60096801F03E
:101EB000010105914FF480710091CDE90120CDE938
:101EC000033008486946FEF73FFD2068354320F09F
:101ED000EC602843E4E70000303802400838024054
:101EE00000080240000002402DE9F84F05004FF0C5
:101EF00000076ED02878DFF82093A9F1040AC00704
:101F0000AAF104044CD0D9F800104846C1F381016D
:101F1000012908D00068C0F3810002280AD1DAF84C
:101F20000000400206D52068800339D56868002883
:101F3000DFD035E06868B0F5803F0BD010B1B0F568
:101F4000A02F11D0206820F480302060206820F479
:101F5000802002E0206840F480302060686890B102
:101F6000FEF7E4FD06460AE0206840F48020206089
:101F7000F0E700BFFEF7DAFD801B642872D8206806
:101F80008003F7D50CE0FEF7D1FD064605E000BF63
:101F9000FEF7CCFD801B6428F0D820688003F7D4BE
:101FA0002878800742D5D9F80010484611F00C0F68
:101FB00008D00068C0F3810002280BD1DAF80000D5
:101FC000400207D42068800718D5E868012800D1AE
:101FD00014E01EE1E8680028206817D040F00100F6
:101FE0002060FEF7A3FD064605E000BFFEF79EFD5C
:101FF000801B0228C2D820688007F7D5286921688D
:1020000021F0F80141EAC00020600FE020F001005B
:102010002060FEF78BFD064605E000BFFEF786FD5B
:10202000801B02281ED820688007F7D42878000774
:1020300029D5794869696C3000298046016812D039
:1020400041F001010160FEF771FD064605E000BFA9
:10205000FEF76CFD801B022804D8D8F8000080072A
:10206000F6D510E089E021F001010160FEF75EFD88
:10207000064604E0FEF75AFD801B02287DD8D8F8FA
:1020800000008007F6D4287840076BD5DFF88881F8
:1020900008F13808D8F80000C0000BD4D8F80010B8
:1020A00041F08051C8F80010D8F80000012700F076
:1020B0008050009059480168C90512D401688346D0
:1020C00041F480710160FEF731FD064605E000BF76
:1020D000FEF72CFD801B64284FD8DBF80000C005FC
:1020E000F6D54D4EA868683601280AD008B10528F3
:1020F00011D0306820F001003060306820F004001A
:1021000002E0306840F001003060A868A0B1FEF73E
:102110000DFD83460CE0306840F004003060F0E7CD
:10212000FEF704FDA0EB0B0141F28830814268D834
:1021300030688007F4D50EE0FEF7F8FC834607E030
:10214000FEF7F4FCA0EB0B0141F28830814258D835
:1021500030688007F4D42FB1D8F8001021F08051F6
:10216000C8F80010A869E0B3D9F80010C1F38101E4
:1021700002294ED00228206800E042E020F0807062
:10218000206003D0FEF7D2FC05463DE0FEF7CEFC12
:10219000064604E0FEF7CAFC801B022831D82068FE
:1021A0008001F7D4D5E90921DFF874C0D5E9070625
:1021B00095F830304F0895F82C1030430CEB07455C
:1021C00045EA8212104340EA016040EA0370CAF80F
:1021D0000000206840F080702060FEF7A7FC0546F4
:1021E00005E014E0FEF7A2FC401B022809D8206895
:1021F0008001F7D50BE000BFFEF798FC401B0228DA
:1022000002D90320BDE8F88F20688001F4D40020B3
:10221000F8E70120F6E700000838024000700040AF
:102220000000FFFFFEB504460D46416C032084F814
:102230003400032920D0B5F5805F1DD0B5F5006FBF
:1022400005D045B1A06B40F00060A06309E02046D6
:1022500001F06EFF02E0204601F043FFA16B014355
:10226000A163A06B012658B1216840F2FF5088633A
:1022700084F834600120FEBDA06B40F08050E4E79C
:10228000211DD4E905070EC9CDE900500297206849
:1022900001F0B8FD84F834600020FEBDF0B5426E58
:1022A000120E93090B70C2F3830402F003024C7008
:1022B0008A70426E120CCA70B0F86420120A0A7159
:1022C00090F864204A714FF6FF73826E120E03EA93
:1022D0000212CA80CB88826EC2F3074214092343DC
:1022E000CB8002F00F020A72B0F868200025C2F31A
:1022F0000722D3094B72C2F38014C2F34016C2F313
:1023000000178C72CE720F734D730123446C4FF41F
:1023100000766CB1012C46D0026840F2FF51916307
:10232000816B41F08051816380F834300120F0BD31
:102330009207120D0A610C6990F8682044EA820243
:102340000A610C69C26E120E9709C2F3C20C3C43BB
:102350000C6102F0070281F814C04A75C26EC2F324
:102360000742940757098F75640FC2F38202CA753A
:102370000C760A7EB0F86C40C4F3072442EAD4120B
:102380000A760A69521C42650F7EBF1CBA4042653C
:102390000F7A03FA07F787654FEA572C02FB0CF216
:1023A000C0E917261CE090F868209206920A0A619C
:1023B0000C69C26E120E44EA02220A610C69C26EF6
:1023C000C2F3074214430C610A69B0F86C40521C16
:1023D0004FEA82224265C4F30724C0E9166206660A
:1023E000C4F380124FEA84644A764FEA54648C76D0
:1023F00090F86C208C7E4FEAD21602F07F0244EAFD
:1024000006048C76CA7650F8702F4FEA12624FEAB3
:10241000D2140C77C2F34116C2F382074FEA8272DC
:102420004E778F774FEA1272CA77CC7F0268C2F379
:10243000074244EA9214CC77C2F3401602F001023C
:1024400081F8206081F8215081F822200288C2F3AF
:1024500007224FEAD21481F82340C2F38015C2F359
:102460004016C2F30017C2F3810C02F0030281F898
:10247000245081F8256081F8267081F827C081F802
:10248000282000784FEA500081F8290081F82A308E
:102490004FF00000F0BD426C0A60826C4A60C26C72
:1024A0008A60026DCA60426D0A61826D4A61C26DC6
:1024B0008A61006EC8610020704770B5B0F8501096
:1024C000002504460068090401F0E8FA18B1A16B80
:1024D0000143A16304E02068002101F08DFC054662
:1024E000C5F3432070BD70B5040004D094F83400E7
:1024F000002510B105E0012070BD2046257700F0D1
:102500003BF8032084F83400204600F007F801204F
:10251000A563256384F83400002070BD3EB50446F1
:102520007620002100910B460A46CDE90110206873
:1025300001F068FC2068416821F4807141602068E6
:1025400001F071FC2068416841F480714160022013
:10255000FEF7DAF9204601F071FD4FF0010520B9D0
:10256000204601F0F8FC002805D084F83450A16B17
:102570000143A16301203EBD2DE9F0432A49814674
:10258000006887B088424CD12848016841F080013A
:102590000160006802240025694600F08000059073
:1025A00003260B27C0208DE8F1002148FEF7CCF967
:1025B000780269468DE8F1001E4F3846FEF7C4F9EF
:1025C0000A21A002CDE903618DE831006946384651
:1025D000FEF7BAF9184C4FF0B051184840224FF4AA
:1025E00000184FF4804C2060031561608714A260CE
:1025F0002020C4E90353C4E90705042182042046CE
:10260000C4E90916C4E90B28C4E9057CFEF7CCF837
:1026100018B19F210AA003F02CFBC9F84040C4F870
:10262000389007B0BDE8F083001C014044380240F8
:10263000000C024000180240E87902208864024041
:102640002E2E2F5372632F73746D33326637787862
:102650005F68616C5F6D73702E6300002DE9F04F51
:1026600087B09A4617460E460446DDF840B0FEF79E
:102670005DFA00903EB194F83400012807D0A06BB9
:1026800040F000500FE0A06B40F000600BE0E16D07
:1026900007EB0A004FF00008C4F83880884204D9DC
:1026A000A06B40F00070A0637DE0032084F834004C
:1026B0002068C0F82C80606C012800D07F02206860
:1026C0004FF4007101F0D0F840F2FF594FF00105CE
:1026D00030B12268C2F83890A16B0143A16360E079
:1026E00002204FF0FF324FEA4A239021CDE9031038
:1026F000CDE90123CDE90585206801A901F04CFA57
:10270000BAF1010F06D9022020632068394601F092
:1027100037F904E025633946206801F04AF90028BA
:10272000D7D122E0406B000409D50027206801F0D2
:102730007EFB46F827007F1C082FF7D32036BBF11D
:10274000000F05D0FEF7F2F90099411A59450CD354
:102750002168C1F83890A06B40F00040A06384F875
:102760003450032007B0BDE8F08F2068416B11F4AE
:10277000957FD7D0416BC90509D5BAF1010F06D9AC
:10278000616C032903D001F0BBF90028A1D12068B6
:10279000416B090709D5C0F83890A06B40F00800DC
:1027A00028E084F834500120DCE7416B890705D527
:1027B000C0F83890A06B40F002001BE0416B890626
:1027C0001AD5C0F83890A06B40F0200012E000BF8E
:1027D00001F02DFBBBF1000F01C605D0FEF7A6F9F5
:1027E0000099411A594507D32168C1F83890A06B68
:1027F00040F00040A063D4E72068416B8902E7D431
:10280000C0F8389084F834500020ABE72DE9F04F41
:1028100087B09A4616460D460446FEF787F983466A
:102820003DB194F83400012807D0A06B40F000506F
:102830000DE0A06B40F0006009E0E26D002006EBC7
:102840000A01A063914204D9A06B40F00070A0631C
:102850009CE00321814684F834102168C862606CD2
:10286000012800D0760220684FF4007100F0FCFFD0
:1028700040F2FF584FF0010730B12268C2F83880AB
:10288000A16B0143A16317E0BAF1010F06D9202023
:1028900020632068314601F04DF905E010202063E7
:1028A0002068314601F05FF9060008D02168C1F8C0
:1028B0003880A06B3043A06384F8347066E04846EB
:1028C0004FF0FF314FEA4A23B9469022CDE9040781
:1028D000CDE90220CDE900132068694601F05CF9DA
:1028E00022E0406B40040AD55FF00007206805EB4A
:1028F000870101F0B0FA7F1C082FF7D3203510981C
:1029000030B1FEF713F9A0EB0B01109881420BD305
:102910002268C2F83880A06B3043A06384F83490FA
:10292000032007B0BDE8F08F2068416B11F48D7F64
:10293000D7D0416BC90510D5BAF1010F0DD9616C23
:1029400003290AD001F0DCF838B123684946C3F8FE
:102950003880A26B0243A26316E02068416B09072E
:1029600008D5C0F83880A06B40F00800A06384F858
:1029700034900BE0416B89070AD54946C0F838808E
:10298000A06B40F002000CE084F834100120C8E78E
:10299000416BC0F83880C906494604D5A06B40F0A9
:1029A0001000A063F0E784F834100020B9E7704706
:1029B0002DE9F047040005D094F85D000025A562DC
:1029C00018B107E00120BDE8F087204684F85C508C
:1029D00000F050F8022284F85D204FF4E063206894
:1029E000016821F040010160E068984201D90021AE
:1029F00001E04FF48051B0F5706F02D0984200D0E2
:102A0000A5624FF00109266B2EB9984201D92263C5
:102A100001E0C4F83090D4E90468D4E90102278BBE
:102A200046EA0806A36A104307F400783043266894
:102A3000D4E907C240EA080040EA0C00CC4604276B
:102A4000104318433060D4F81880666B606AE268FF
:102A500007EA1847236830433A4310430843586055
:102A60002068C16921F40061C161256684F85DC0F8
:102A70000020A8E72DE9F04F0221624B05680024F1
:102A8000032280464E028F029D4287B04FF4005BC6
:102A90004FF480794FF4003A2DD15B48036843F43A
:102AA000004303600068062300F4004005904FF4E3
:102AB000A0508DE8130055486946CDE90323FDF782
:102AC00043FF534D5348C5E9000405F10C00C5F818
:102AD0001C90AC6080E8D008C5E908A42846FDF742
:102AE00063FE08B1F02188E0C8F85850C5F8388076
:102AF00007B0BDE8F08F4448474B001D9D424FF0A2
:102B0000050325D1056845F400550560006800F40B
:102B10000050059044208DE8130040486946CDE9F7
:102B20000323FDF711FF3E4D3E4805F10C0CC10596
:102B300085E81300C5F81C9028468CE8D008C5E944
:102B400008A4FDF731FE0028CED04FF48D7154E07B
:102B5000DFF8D4C0654528D1056845F480150560C7
:102B6000006800F4801005904FF420708DE8130089
:102B70002E486946CDE90323FDF7E6FE2C4D4FF0C4
:102B80008061284805F10C0C483085E81300C5F831
:102B90001C9028468CE8D008C5E908A4FDF704FE7F
:102BA0000028A1D04FF4A27127E0DFF888C0654566
:102BB0009ED1056845F400150560006800F400101A
:102BC00005904FF4C0408DE813001B486946CDE9DD
:102BD0000323FDF7B9FE194D4FF0007111489030F5
:102BE00013C51648D0C585E81006EC60183DFDF702
:102BF000DBFD0028A8D04FF4B77111A003F039F81D
:102C000072E70000003C00404038024000080240EB
:102C1000487A022010600240003401400010024057
:102C2000A87A0220106402400050014000140240C3
:102C3000087B02200054014000180240687B0220FB
:102C40002E2E2F5372632F73746D3332663778785C
:102C50005F68616C5F6D73702E6300002DE9F04159
:102C6000044604200026A3681BB96568B5F5827F79
:102C70000ED094F85C50012D13D094F85DC001275C
:102C8000002584F85C70BCF1010F0DD0022662E0D3
:102C900084F85D002046BDE8F04113460A4600F086
:102CA0005FB90220BDE8F08159B352B32164B3F596
:102CB000004F84F85D002566E5642565A587A4F8C6
:102CC0004420A4F84620E58704D12068016821F457
:102CD00080410160E0684FF4E061884204D8A06D53
:102CE0008069B0F5005F0CD02068426822F4005281
:102CF0004260E06888422068416804D921F480512C
:102D000003E0012627E041F480514160A06D1449A1
:102D10000164A16D1348C863A16D1348C864A06D18
:102D20000565B4F846302168226CA06D0C31FDF7C2
:102D3000ADFD20680168490603D4016841F04001F7
:102D400001602068416841F02001416020684168CD
:102D500041F001014160304684F85C50A2E7000078
:102D60006D420008814200084B4200082DE9F047FF
:102D70003C4B042102683C4C9A4200D121613B4B00
:102D800002689A4200D1A160394B02689A4200D190
:102D900061600068374A904200D1E16001226069B9
:102DA0000421DFF8D4A0401C60615046FDF7B8FE56
:102DB0002069042801D0032841D1A068042801D04B
:102DC00003283CD16068042801D0032837D1E0688B
:102DD000042801D0032832D1DFF8A0C04FF4965068
:102DE000274B4FF41659274D274EDFF8A08000BF20
:102DF00003EB40013CF810704FF4614257524FF41E
:102E0000964235F81070575236F8102001F51041EF
:102E100023F8102038F81070401C4845A1F80076BF
:102E2000E6DB207830B116494FF496321848A36992
:102E300003F085FD03202061A0606060E060002257
:102E400004215046FDF76CFE607820B103F070F865
:102E50000020607020700221BDE8F0470D4803F0AB
:102E600045BE0000003C0040A800002000340140A6
:102E7000005001400054014000180240E82E02209A
:102E8000EC830220E8980120E84D0120E8E30120CE
:102E9000342B012068090220F0B4274E0523026874
:102EA0004FF49655254C2649B2420DD1254F0022AC
:102EB00001EB420606F5604637F812C0521CAA42E2
:102EC000A6F800C1F4DB23611F4E0268B2420DD1A7
:102ED0001E4F002201EB420606F5804637F812C06D
:102EE000521CAA42A6F800CBF4DBA360184E02687D
:102EF000B24209D1174E002236F8127021F8127032
:102F0000521CAA42F8DB63600068134A90420DD15C
:102F1000124E002001EB400202F5104236F810700C
:102F2000401CA842A2F80076F4DBE3600221F0BC6A
:102F30000A4803F0DBBD0000003C0040A800002070
:102F4000EC830220E82E022000340140E8980120A2
:102F500000500140E84D012000540140E8E3012009
:102F60002DE9F041044690F85C00002601280DD0C0
:102F700094F85D700120D4F804C00025012F84F876
:102F80005C000FD0BCF5827F0AD102E00220BDE8D0
:102F9000F081D4F808C0BCF1000F01D1042F01D09A
:102FA000022692E011B30AB303B394F85D70042FC4
:102FB00002D0052784F85D702566A163A387E387A7
:102FC0002264A4F84430A4F84630E56425652168FD
:102FD0004A6822F4C0424A60E168B1F5E06F07D95F
:102FE0002068416821F48051416031E001266CE0A5
:102FF00021684FF400524B6843F480534B60616D7D
:10300000896991420CD194F83C10C90721684B683A
:103010005FD043F480434B60E18F00EB5101E187C7
:10302000A16D8969914213D121684A6822F48052C6
:103030004A60B4F84610C90751D021684A6842F482
:1030400000524A60B4F8461000EB5100A4F8460064
:1030500094F85D00A16D04284AD0284808642848E7
:10306000A16DC863A06D2749C164A06D0565B4F862
:1030700046302168226CA06D0C31FDF707FC2068FA
:10308000416841F001014160606D0564606DC56398
:10309000606DC564606D0565E38F2268A16B606D2E
:1030A0000C32FDF7F3FB20680168490603D4016880
:1030B00041F0400101602068416841F02001416019
:1030C0002068416841F002014160304684F85C505C
:1030D0005DE723F480434B60E18F49089FE7206858
:1030E000416821F400514160B4F846004008ADE762
:1030F000054808640548A16DB3E700007742000861
:10310000D74200084B4200086D4200088142000887
:103110007047704704284FF0E020016903D021F088
:1031200004010161704741F00401FAE77047401E55
:10313000B0F1807F10B501D3012010BD4FF0E02425
:1031400060610F21601700F0F7FA0020A0610721ED
:10315000216110BD10B5FFF7E9FF10BD7047704742
:1031600010B5040003D094F83D0010B107E0012031
:1031700010BD002084F83C00204600F00DF802202D
:1031800084F83D002068211D01F072FA012084F8C6
:103190003D00002010BD000008B500680B498842C2
:1031A00012D10B48016841F480710160006800226F
:1031B000114600F4807000902D20FDF749FDBDE818
:1031C00008402D20FDF739BD08BD0000002000405B
:1031D00040380240704770B5044600680025016918
:1031E000C943890715D4C168C943890711D4EA1EA8
:1031F000026101212177206880698007204602D082
:10320000FFF7E8FF04E000F0A5F8204600F0A3F87F
:10321000257720680169C943490717D4C168C943A4
:10322000490713D402216FF004020261217720685C
:10323000806910F4407F204602D0FFF7CBFF04E006
:1032400000F088F8204600F086F8257720680169AC
:10325000C943090716D4C168C943090712D4042118
:103260006FF00802026121772068C069800720465C
:1032700002D0FFF7AFFF04E000F06CF8204600F04A
:103280006AF8257720680169C943C90617D4C1685F
:10329000C943C90613D408216FF0100202612177D7
:1032A0002068C06910F4407F204602D0FFF792FFEB
:1032B00004E000F04FF8204600F04DF82577206834
:1032C0000169C943C90708D1C168C943C90704D105
:1032D000891E0161204600F03FF820686FF08005EC
:1032E0000169C943090607D4C168C943090603D463
:1032F00005612046FFF732FF20680169C943C9050F
:1033000007D4C168C943090603D405612046FFF705
:1033100025FF20680169C943490609D4C168C9432A
:10332000490605D46FF040010161204600F015F810
:1033300020680169C94389060BD4C168C94389065D
:1033400007D46FF0200101612046BDE87040FFF70F
:1033500006BF70BD7047704770477047FEE70000BA
:103360001D4808B5016841F480010160016801F45D
:1033700080010091016841F40011016000680022A1
:10338000114600F4001000900B20FDF761FC0B20AB
:10339000FDF753FC002238201146FDF759FC382078
:1033A000FDF74BFC00223B201146FDF751FC3B2072
:1033B000FDF743FC002244201146FDF749FC442060
:1033C000FDF73BFC002245201146FDF741FCBDE81E
:1033D00008404520FDF731BC30380240044905481B
:1033E00010B5FDF7EDF80249491E087010BD000048
:1033F00053000020CC7600082DE9F04F6E4887B0CE
:10340000016841F010010160016801F010010591AF
:10341000016841F020010160016801F0200105917F
:10342000016841F080010160016801F080010591AF
:10343000016841F004010160016801F00401059197
:10344000016841F002010160016801F0020105918B
:10345000016841F040010160016801F040010591FF
:10346000016841F001010160016801F0010105916D
:10347000016841F00801016000680022DFF83CA10A
:10348000082100F0080005905046FDF749FBDFF8E1
:1034900030B140F20117002239465846FDF740FB93
:1034A0004848002248F21C01FDF73AFB4FF400683F
:1034B000454800224146FDF733FB444800221121D4
:1034C000FDF72EFB4FF4C079414800224946FDF735
:1034D00027FB01256946032608200024CDE90005C5
:1034E000CDE902465046FDF72FFA0097694603964C
:1034F0005846CDE90154FDF727FA20206946CDE969
:10350000000431480294FDF71FFA4FF42040009068
:1035100030486946CDE901052D48FDF715FA022727
:1035200069461C20CDE900052648CDE90247FDF794
:103530000BFA68026946CDE900072348CDE9024647
:103540000494FDF701FA28026946CDE900072248F4
:10355000CDE902460494FDF7F7F9CDF800806946FD
:1035600003961948CDE90154FDF7EEF9112069469B
:10357000CDE900051548CDE90246FDF7E5F9E80378
:103580006946CDE900050F48CDE90246FDF7DCF9B3
:10359000CDF80090694603960D48CDE90154FDF73A
:1035A000D3F9002228201146FDF752FB2820FDF711
:1035B00044FB07B0BDE8F08F3038024000100240F5
:1035C000001402400018024000080240000C0240B3
:1035D0000004024000002110000002402DE9F041EB
:1035E0000E4F00210E48012202253C1553020760B0
:1035F0004FF47066C0E90114072401624162C0E91A
:103600000A1401634163C0E90523C0E90365FFF7BC
:10361000CFF9002800D0FEE7BDE8F081003C004073
:10362000184C01202DE9F0410E4F00210E480122D7
:1036300002253C15530207604FF47066C0E901147F
:10364000072401624162C0E90A1401634163C0E9D1
:103650000523C0E90365FFF7ABF9002800D0FEE7BA
:10366000BDE8F081003401407C4C01202DE9F0419F
:103670000E4F00210E48012202253C15530207601F
:103680004FF47066C0E90114072401624162C0E989
:103690000A1401634163C0E90523C0E90365FFF72C
:1036A00087F9002800D0FEE7BDE8F0810050014016
:1036B000E04C01202DE9F0410E4F00210E4801227F
:1036C00002253C15530207604FF47066C0E90114EF
:1036D000072401624162C0E90A1401634163C0E941
:1036E0000523C0E90365FFF763F9002800D0FEE772
:1036F000BDE8F08100540140444D012009490022F9
:10370000094810B501F0A6FA0849074801F0B2FCD3
:103710000749054801F0C2F8BDE81040024801F031
:10372000F7BC000058000020C87B0220E000002009
:103730008C000020FEE77047090700284FEA11615E
:1037400006DA00F00F0000F1E02080F8141D704749
:1037500000F1E02080F80014704700000148FDF7F8
:1037600011BC0000EC7D02202DE9F84F0F460668E1
:103770008246C1EBC70100EB8105D5E91312286C25
:1037800038358C1AA04200D20446E01C06EB4719DB
:10379000C11700EB91704FEAA00819E0AA68441A1B
:1037A000A24200D21446E01CA3B2C117FAB200EB49
:1037B00091704FEAA0089AF8100000903046E9682E
:1037C00002F040FAE8682044E860A8692044A86153
:1037D000D9F8180981B2414505D9D5E905018142D9
:1037E00001D20028DAD1002C06DCD6F834180120EA
:1037F000B8408143C6F834180020BDE8F88F704700
:1038000030B585B00446372040220DF1080CCDE9D3
:10381000001000236946150120468CE82C0000F0BA
:1038200009FB372141F28832204600F0C9F905B082
:1038300030BD000030B50B4A85B004462920114345
:1038400040220DF1080CCDE9001000236946150156
:1038500020468CE82C0000F0EDFA204600F066FAD5
:1038600005B030BD0000108030B585B00446102092
:103870000DF1080C8501CDE90010402269460023B6
:1038800020468CE82C0000F0D5FA102141F2883255
:10389000204600F095F905B030BD30B585B004463E
:1038A000062040220DF1080CCDE9001000236946E6
:1038B000150120468CE82C0000F0BCFA062141F2EC
:1038C0008832204600F07CF905B030BD30B585B0B7
:1038D0000546002469464FF48060009401940294E8
:1038E000CDE90340284600F0A5FA0B4A4FF4FA5000
:1038F00041F288311268B2FBF0F04843401E03D217
:103900004FF0004005B030BD696B0906F6D540F2B6
:10391000FF512046A963F5E7D000002070B50821CB
:10392000044685B04FF4D5704026CA018DE84300A7
:1039300000256946CDE90352204600F07BFA0F4A84
:103940004FF4FA5041F288311268B2FBF0F048436C
:10395000401E02D24FF000450CE0616B11F0450FA4
:10396000F6D0606B400701D5042502E0606B40068D
:1039700000D5A66305B0284670BD0000D000002029
:1039800030B585B00446122040220DF1080CCDE977
:10399000001000236946150120468CE82C0000F039
:1039A00049FA122141F28832204600F009F905B0A7
:1039B00030BD30B585B00446112040220DF1080C11
:1039C000CDE9001000236946150120468CE82C0043
:1039D00000F030FA112141F28832204600F0F0F870
:1039E00005B030BD30B585B0044640210DF1040C62
:1039F0000720009200230D018CE82B006946204629
:103A000000F018FA072141F28832204600F0D8F879
:103A100005B030BD10B586B0044600210220C0229A
:103A200043020493CDE90010CDE902216946204606
:103A300000F000FA204600F051F906B010BD30B594
:103A400085B0044609200DF1080CC022CDE9001014
:103A5000002369464FF4806520468CE82C0000F076
:103A6000E9F9204600F03AF905B030BD10B586B04E
:103A70000446002133204022CDE90221CDE9001087
:103A8000130169462046049300F0D4F9332141F232
:103A90008832204600F094F806B010BD30B585B0ED
:103AA00004460D2040220DF1080CCDE90010002342
:103AB0006946150120468CE82C0000F0BBF90D2169
:103AC00041F28832204600F07BF805B030BD30B5B9
:103AD00085B00C460021054603204022CDE9022195
:103AE000CDE90010130169462846049300F0A2F9BD
:103AF00003212246284600F039F905B030BD000008
:103B000010B586B0044600210C204022CDE90221E8
:103B1000CDE90010130169462046049300F08AF9AC
:103B2000034A0C21204600F04BF806B010BD0000FF
:103B300000E1F50530B585B00446192040220DF1AD
:103B4000080CCDE9001000236946150120468CE8D9
:103B50002C0000F06FF9192141F28832204600F064
:103B60002FF805B030BD30B585B00446182040228E
:103B70000DF1080CCDE9001000236946150120461F
:103B80008CE82C0000F056F9182141F288322046CA
:103B900000F016F805B030BD70B50A6842624A6898
:103BA0008262C46AD1E90225D1E9043624F0F70122
:103BB0002A4333431A431143C162002070BD000001
:103BC00010B5444C4FF4FA532468B4FBF3F3534359
:103BD0005B1E02D24FF0004010BD426B12F0450F49
:103BE000F6D0426B520703D504218163084610BD0D
:103BF000426BD20702D00121816303E00269D2B295
:103C00008A4201D0012010BD40F2FF5181630021A2
:103C100000F0F2F83049084201D1002010BD002820
:103C200002DA4FF0007010BD410001D5402010BDF8
:103C3000810001D5802010BDC10002D54FF48070F5
:103C400010BD010102D54FF4007010BD410102D535
:103C50004FF4806010BDC10102D54FF4006010BD6B
:103C6000010202D54FF4805010BD410202D54FF43D
:103C7000005010BD810202D54FF4804010BDC1023A
:103C800002D54FF4004010BD410302D54FF400307F
:103C900010BD810302D54FF4802010BDC10302D5B1
:103CA0004FF4002010BD010402D54FF4801010BD68
:103CB000410402D54FF4001010BD810402D54FF429
:103CC000800010BD000702D54FF4000010BD4FF476
:103CD000803010BDD000002008E0FFFD124B4FF4F3
:103CE000FA5141F288321B68B3FBF1F15143491E8E
:103CF00002D24FF000407047426B12F0450FF6D0F1
:103D0000416B490703D50421816308467047416B25
:103D1000C90703D0012181630846704740F2FF5173
:103D20008163002070470000D00000200E4B4FF44C
:103D3000FA5141F288321B68B3FBF1F15143491E3D
:103D400002D24FF000407047426B12F0450FF6D0A0
:103D5000416B490703D5042181630846704740F24F
:103D6000FF51816300207047D000002030B51F4D07
:103D70004FF4FA5341F288342D68B5FBF3F36343F3
:103D80005B1E02D24FF0004030BD446B14F0450F73
:103D9000F6D0436B5B0703D504218163084630BD31
:103DA000436BDB0702D00121816303E00369DBB2CF
:103DB0008B4201D0012030BD40F2FF5181630021D0
:103DC00000F01AF810F4604F04D0410406D54FF407
:103DD000005030BD000C1080002030BD000402D522
:103DE0004FF4805030BD4FF4803030BDD000002003
:103DF000006800F003007047084408B514300090D4
:103E0000006808BD70B511434268049EDDE90554A1
:103E1000334347F6FF6619432943B24321430A431C
:103E20004260002070BD0321016000207047D0F87F
:103E30008000704770B50A688260C468D1E90125C6
:103E4000D1E90336210B2A43334309031A431143B3
:103E5000C160002070BD0968C0F880100020704764
:103E600010B5064C01202070FCF7BEFA18B9207876
:103E700020F001002070207810BD000051000020CB
:103E80002DE9F04F89B00E460446FCF74FFE00279F
:103E9000009701970821834620683D46FFF7E4FC20
:103EA000002835D1B4F8501020680904FFF7A8FCA9
:103EB00000282DD14FF008084FF002094FF0010CF7
:103EC000421E3023CDE90228CDE90439CDE9067C34
:103ED000206802A9FFF760FE2068FFF7C7FD0028F1
:103EE00016D1EA4640F22A472068416B394212D186
:103EF000416B890204D5FFF79AFF4AF825006D1C33
:103F0000FCF714FEA0EB0B00401CEDD14FF000407D
:103F100009B0BDE8F08F416B090703D5C0F83880C0
:103F20000820F5E7416B890703D5C0F838900220D7
:103F3000EEE7416B890603D5202181630846E7E758
:103F400040F2FF518163009800BA7060019800BA96
:103F500030600020DCE710B590B004460120ADF8D9
:103F600038002068FFF744FF002864D0606C032805
:103F700042D02068FFF74EFD00285AD1206800216A
:103F8000FFF73AFF606704212068FFF735FFA0675D
:103F900008212068FFF730FFE0670C212068FFF759
:103FA0002BFF616CC4F88000032925D020680EA97E
:103FB000FFF78DFD00283CD1606C03281CD0BDF8B4
:103FC0003810216520680904FFF739FD002830D139
:103FD00020680021FFF710FF606604212068FFF7CA
:103FE0000BFFA06608212068FFF706FFE0660C21A2
:103FF0002068FFF701FF206704212068FFF7FCFE1F
:10400000000DE06403A92046FEF748F9B4F850001B
:10401000002302042068FFF7E5FC002809D104F121
:10402000100007C88DE8070094E80F00FFF7EAFECC
:10403000002010B010BD4FF08060FAE72DE9F84382
:104040000025044600950068FFF740FC00281BD1BE
:104050002068FFF763FC4FF080784FF6FF76E0B101
:104060004FF08057A5640098B04200F10100009025
:104070001BD020680021FFF7C3FB20B92068002176
:10408000FFF7D8FB10B13846BDE8F883206800215F
:10409000FFF7B2FEC00FE6D020E00127A76400982A
:1040A000B04200F10100009001D14046ECE72068E9
:1040B0000021FFF7A5FB0028E6D120684FF08041E2
:1040C000FFF7B8FB0028DFD120680021FFF794FE3E
:1040D000C10FE4D0400001D5676400E065640020B2
:1040E000D2E71CB504460020009000210190206812
:1040F000FFF782FE800102D54FF400601CBD6946C7
:104100002046FFF7BDFE0028F8D10198C0030CD56A
:10411000B4F8501020680904FFF772FB0028EDD1B5
:1041200020680021FFF7B9FB1CBD4FF080601CBD6B
:104130001CB5044600200090002101902068FFF784
:104140005BFE800102D54FF400601CBD694620462D
:10415000FFF796FE0028F8D1019840030CD5B4F87B
:10416000501020680904FFF74BFB0028EDD12068B0
:104170000221FFF792FB1CBD4FF080601CBD0000C8
:1041800070B5064C054601202070FCF739F918B9C6
:104190002846FFF765FE2070207870BD5100002092
:1041A000144810B588B014460078C00702D0032028
:1041B00008B010BD39B1012907D002290BD003295D
:1041C00010D00420F4E70020F2E76846FCF706F977
:1041D000069900200CE06846FCF700F907990020DA
:1041E0002180E5E76846FCF7F9F807990020490ABD
:1041F0002160DDE75100002070B501241D46164600
:104200000846A31E2A463146FCF714F928B900BF18
:10421000FCF7EAF80028FBD10024204670BDFFF728
:104220001FBE000070B501241D4616460846A31E99
:104230002A463146FCF70EF928B900BFFCF7D4F83E
:104240000028FBD10024204670BD10B5806B0122F0
:1042500001684B6823F003034B60016E41F01001CD
:10426000016680F85D20FEF7A2FB10BD10B5806BE3
:10427000FEF712FE10BD10B5806BFEF74AFF10BDB1
:1042800070B5846B0546FCF751FC0246286800684F
:10429000C0051CD42068416821F0200141602068DD
:1042A000416821F0030141606421204600F041F89B
:1042B00008B1202020660021A4F84610012084F8CF
:1042C0005D00206E18B12046FEF771FB70BD2046E0
:1042D000FEF74CFD70BD70B5846B0546FCF726FCFF
:1042E000024628680068C0051FD42068416821F094
:1042F000200141606421204600F055F818B1206E7D
:1043000040F020002066206800210122436823F04D
:1043100003034360E187A4F8461084F85D20206E13
:1043200018B12046FEF743FB70BD2046FEF7F0FEB5
:1043300070BD2DE9F843044640684FF48276154677
:10434000B04289464FF400474FF4806809D1A06815
:10435000B84201D0404504D12068016821F04001F5
:10436000016000224B4680212046009500F08FF826
:1043700080B96068B04214D1A068B84201D040450D
:104380000FD100224B464FF4C0612046009500F04B
:104390002EF830B1206E40F0200020660320BDE8EA
:1043A000F8830020FBE7F8B515460E4604460B4699
:1043B0004FF4C0510092002200F019F888B9002291
:1043C000334680212046009500F061F848B900226C
:1043D00033464FF4C0612046009500F008F80028ED
:1043E00004D0206E40F0200020660320F8BD2DE9A7
:1043F000F8434FF4C0681D4617460E46DDF820907E
:1044000004463DE0464505D127B9007B8DF8000004
:104410009DF80000681C33D02DB1FCF787FBA0EBA2
:104420000900A8422CD32068416821F0E0014160D6
:104430006068B0F5827F0BD1A068B0F5004F02D064
:10444000B0F5806F04D12068016821F0400101605F
:10445000A06AB0F5005F0AD120684DF6FF720168CE
:10446000114001602068016841F4005101600121A0
:1044700084F85D10002084F85C000320BDE8F88318
:10448000206881683140B942BCD10020F6E72DE9AF
:10449000F0411D4616460F460446DDF8188035E00B
:1044A000681C33D02DB1FCF741FBA0EB0800A842FB
:1044B0002CD32068416821F0E00141606068B0F5CC
:1044C000827F0BD1A068B0F5004F02D0B0F5806FAD
:1044D00004D12068016821F040010160A06AB0F5B4
:1044E000005F0AD120684DF6FF720168114001603B
:1044F0002068016841F400510160012184F85D10D9
:10450000002084F85C000320BDE8F081206880680A
:104510003840B042C4D10020F6E7704710B5FCF730
:104520000BFBBDE81040FEF715BE00003648F0B5A5
:104530000168B7B041F080510160006800F0805020
:1045400036903248016841F440410160006802241D
:10455000012540F21912670500F440403690E0034F
:10456000CDE92A4709232F932CAECDE92450082109
:1045700086E8160024A8FDF7B7FC00B1FEE7FDF7BA
:10458000C7F800B1FEE74FF480524FF4A051002667
:10459000CDE9341231AA0F20072182E8510031A859
:1045A000FDF78AFB00B1FEE7CDE907454FF08460D7
:1045B00000907D21219682011F92CDE90A56CDE916
:1045C00005146846FDF7DAF800B1FEE70022394627
:1045D0001046FDF73FFC002201204FF00041FDF79F
:1045E00039FCFDF7FFFB4FF47A71B0FBF1F0FEF7F9
:1045F0009EFD0420FEF78EFD0022501E1146FCF7A2
:1046000027FB37B0F0BD000040380240007000408A
:10461000104A30B51048146800210F4B44F4700460
:104620001460083305680D4A0D4C45F0010505601E
:1046300019600368051D1340074A03600C322C60A3
:104640000568E305034C25F480250560803C116076
:10465000236030BD88ED00E000380240FFFFF6FE29
:10466000103000240148FEF7B6BD0000A84D01201F
:10467000F0B5274B4FF0804E264D02689842264EEB
:10468000264F274C09D0704507D0A84205D0B0422C
:1046900003D0B84201D0A04205D1D1F804C022F025
:1046A00070024CEA020298421BD0704519D0A84211
:1046B00017D0B04215D0B84213D0A04211D0194D36
:1046C000A8420ED0184DA8420BD0184DA84208D0D1
:1046D000174DA84205D0174DA84202D0164DA8424A
:1046E00003D1CD6822F440722A434D6922F0800242
:1046F0002A43026098428A68C2620A68826201D0D4
:10470000A04201D10969016301214161F0BD0000AE
:10471000000001400004004000080040000C004080
:1047200000040140004001400044014000480140B5
:1047300000180040001C00400020004010B58121FE
:10474000044600F053FB02F027FC3023024601210F
:10475000204600F06BFC002010BD2DE9F041D0F8A0
:104760001852012906462FD105F580544FF4706880
:10477000B4F8080E603080B2A4F8080EB0F5F05F0F
:104780000FD194F8040E0027A4F8087E032808D15E
:10479000D6F81C02012241468368281D984784F8F8
:1047A000047E94F8050E30B9B4F8080E404502D1E5
:1047B000012084F8050EB4F8080E2D1D602342195F
:1047C0003046012100F089FB0020BDE8F08110B5E2
:1047D0000121044600F063FAD4F8180258B1D4F865
:1047E0001C0204F50674416800208847206802F026
:1047F00015FB00202060002010BD10B5D0F8184235
:1048000004F5805494F80A1E01290ED194F84C1E28
:1048100002290AD1D0F81C02016994F80B0E8847CE
:10482000002084F80A0E84F84B0E002010BD0020F2
:104830007047000064210180004870471801002083
:104840000A210180004870477C01002010B5302308
:1048500004460122812100F02DFB41F6506002F058
:10486000B7FCC4F8180298B1002202600323A0F537
:10487000FE7101F500510B708A804A804A70462112
:10488000D4F81C02036845F6C0509847002800D0B1
:10489000022010BD002070470020704709B1C0F809
:1048A0001C1200207047000010B5D0F818020A4B07
:1048B0000A4C0068012808D0002218460821FCF79D
:1048C0002FF900202060002010BD01221846082189
:1048D000FCF726F90120F5E7001802400C00002043
:1048E000F0B50C4609780546D0F8180211F06002C0
:1048F0004FF000068DB0014624D0202A2ED16178D9
:1049000041F60B63012909D0812922D118444021A5
:104910000746FBF7D7FCE28839462CE0E2880746D9
:10492000E2B1F918284600F065F807F58057012034
:1049300087F80A0EA07987F84B0EA088000A87F83E
:104940004C0E0BE0607806280BD00A2817D00B28F5
:1049500017D02146284600F042F802260DB0304616
:10496000F0BD60882121B1EB102FF7D1E2880F490B
:10497000092A00D90922284600F056F8EEE701225C
:10498000F9E7A07802280BD8086030216846FBF7C9
:1049900099FC30236A460121284600F047FBDDE7F9
:1049A0002146284600F01BF8D8E700002A01002025
:1049B00010B5D0F8142252689047002010BD13465D
:1049C0000A46002110B500F088FA002010BD1346F9
:1049D0000A46002110B500F029FB002010BD10B5DB
:1049E0008021044600F0F9FA2046BDE8104000217D
:1049F00000F0F3BA10B5C0F808210323C0F8F43171
:104A00001346C0F80C210A46002100F066FA002087
:104A100010BD0521002310B51A46C0F8F41119463F
:104A200000F05BFA002010BD10B582610223C0F8CF
:104A3000F4311346C2610A46002100F0F7FA002063
:104A400010BD0421002310B51A46C0F8F411194610
:104A500000F0ECFA002010BD04A00A46024910B58F
:104A600000F0D4F8004810BDEC81022041554449C3
:104A70004F20436F6E6669670000000012200880B7
:104A8000004870477800002004A00A46024910B58B
:104A900000F0BCF8004810BDEC81022041554449AB
:104AA0004F20496E7465726661636500042008805A
:104AB000004870477400002004A00A46024910B55F
:104AC00000F0A4F8004810BDEC81022053544D6959
:104AD00063726F656C656374726F6E6963730000F7
:104AE00004A00A46024910B500F090F8004810BD35
:104AF000EC81022053544D333220417564696F209C
:104B0000436C61737300000004A00A46024910B5AB
:104B100000F07CF8004810BDEC81022030303030CD
:104B2000303030303030314100000000F8B50446FC
:104B300048880D46010A08294BD2DFE801F04A04F3
:104B400009174A4A4048D4F81012207C0A6832E01B
:104B5000207C02260028D4F8140205D0C16A6846D9
:104B600088470146467041E0816AF8E7C0B20628EE
:104B70002FD2DFE800F003080D12171CD4F8101232
:104B8000207C4A6817E0D4F81012207C8A6812E072
:104B9000D4F81012207CCA680DE0D4F81012207CE2
:104BA0000A6908E0D4F81012207C4A6903E0D4F8BE
:104BB0001012207C8A6969469047014616E0207CE5
:104BC00038B9D4F81402416B68468847F5E7207C71
:104BD00020B129462046FFF702FFF8BDD4F81402A1
:104BE000016B68468847014607204870BDF8000001
:104BF0000028F2D0EA88002AEFD0824200D902468B
:104C00002046ADF80020FFF70FFFF8BDF0B50028F3
:104C10004FF000041DD00346254602E06D1C5B1CCE
:104C2000EDB21E78002EF9D1022606EB450717805B
:104C3000631C032500260F55A21CCD5406E0541C0E
:104C40008B54E2B2531C401C8E54DAB20378002B12
:104C5000F5D1F0BD10B580B1D0F8143213B10023F6
:104C6000C0F8143209B1C0F810120121027080F8A6
:104C7000FC1100F0CBF8002010BD022010BD10B5D3
:104C8000D0F820020024FCF78FF830B1012801D0C1
:104C9000022801D0022400E00124204610BD10B5F6
:104CA000D0F820020024FCF75DF830B1012801D0D3
:104CB000022801D0022400E00124204610BD2DE985
:104CC000F0411746044641B1D4F8140242698AB350
:104CD00094F8FC01032842D043E0D4F8F4110025F5
:104CE00004F11400022933D1D0E902639E4207D9AE
:104CF000F31A39469AB283602046FFF768FE12E045
:104D00004068B0FBF3F103FB1101A1B9984212D343
:104D1000D4F8F81188420ED2002220461146FFF73F
:104D200056FEC4F8F85100231A461946204600F0F2
:104D3000D4F80DE012E0D4F81402C16829B194F857
:104D4000FC01032801D1204688472046FFF761FE79
:104D500094F80002012804D184F8005201E02046B2
:104D600090470020BDE8F08170B51546044641B17A
:104D7000D4F8140282693AB394F8FC01032824D0D1
:104D800025E0D4F8F41104F5827003291FD1D0E98D
:104D900002218A420BD9531A83600846834200D30A
:104DA000034629469AB22046FFF709FE0FE0D4F8E1
:104DB0001402016929B194F8FC01032801D12046AD
:104DC00088472046FFF73DFE01E02046904700203F
:104DD00070BD0020704710B5012180F8FC11D0F89B
:104DE0001422017952689047002010BD10B5D0F808
:104DF00020020024FCF707F830B1012801D0022876
:104E000001D0022400E00124204610BD70B50178D5
:104E100069BB18490022022301F1140C0126C1F8D4
:104E2000FC030625C0F820124FF0A044C1E903326C
:104E30008CE84C000A6208464A62CA620A63C1E909
:104E40000045FCF76BFB20B10BA04FF4A57100F0FF
:104E500010FF08488021FBF742FF0648402200214E
:104E6000FBF741FF034880220121FBF73CFF0020B4
:104E700070BD0000EC7D02202E2E2F5372632F7523
:104E80007362645F636F6E662E630000D0F8202249
:104E900001F07F000B06C0EBC00002EB800002D5E2
:104EA00090F83A00704790F8FA0170470020704778
:104EB0000020704770B51D46D0F82002002413462C
:104EC0002A46FBF7B9FF30B1012801D0022801D0F2
:104ED000022400E00124204670BD10B5D0F8200265
:104EE0000024FBF7D4FF30B1012801D0022801D003
:104EF000022400E00124204610BD70B500220446C3
:104F000040231146FFF7D6FF4025204600222B46BE
:104F10008021C4F81051FFF7CDFFD4F81802012109
:104F2000256284F8FC1130B1D4F8141220794A6853
:104F3000C1B220469047002070BD90F8FD1180F866
:104F4000FC110020704710B590F8FC11032904D122
:104F5000D0F81412C96901B18847002010BD01744E
:104F60000020704710B5D0F820020024FCF78AFB1F
:104F700030B1012801D0022801D0022400E0012430
:104F8000204610BD70B5044600F50270054600F0DD
:104F90005DF8B4F80E32012194F8080210F01F02F7
:104FA000C4E97D130AD0012A0DD0022A10D000F0E6
:104FB0008001204600F011F8002070BD29462046EF
:104FC00000F0ABF8F8E72946204600F08EF9F3E749
:104FD0002946204600F01AF9EEE710B5D0F8200275
:104FE0000024FBF776FF30B1012801D0022801D060
:104FF000022400E00124204610BD10B5D0F82002A4
:105000000024FCF758FB30B1012801D0022801D060
:10501000022400E00124204610BD90F8FC21042168
:1050200080F8FD2180F8FC110020704710B5D0F801
:1050300020020024FBF784FF30B1012801D00228B0
:1050400001D0022400E00124204610BD0A7802703D
:105050004A784270CB788A7802EB032242804B79FF
:105060000A7902EB032282808A79C97902EB012155
:10507000C180704702464FF0000011B1C2F814120F
:1050800070470220704710B5D0F8142202241AB1DC
:105090001268904700B90024204610BD70B51B4D22
:1050A000044688780E46C1B20129297028D894F8A0
:1050B000FC01022802D0032822D105E099B16160E9
:1050C000032084F8FC0109E091B1606888420AD0AD
:1050D000C1B22046FFF76CFC297861602046FFF7DB
:1050E000D2FF02280CD02046BDE87040FFF7A9BCD3
:1050F0000220616084F8FC012046FFF759FCF2E7CA
:1051000031462046BDE87040FFF769BCDC00002056
:1051100010B5FFF772FF002010BD2DE9F0414B786C
:105120000022012516460A2B43D2DFE803F03C5843
:105130004251420805422A27FFF7F8FC63E0044683
:105140008888C8B9C888B8B98A7894F8FC0102F090
:105150007F07032810D03946204684F8FE71FFF7F8
:1051600001FF2046FFF76DFC1FB1022084F8FC010F
:1051700049E084F8FC5146E020461AE0FFF78EFF34
:1051800041E0CB88012B14D190F8FC31022B02D0E6
:10519000032B0ED104E000F108018260012214E02B
:1051A0000122011D11E090F8FC21022A04D0032AFB
:1051B00002D0FFF714FC26E0D0F80412C56009B154
:1051C0000321C160022200F10C01FFF72DFC1AE05F
:1051D0004A880446012A16D1C4F804520BE004465A
:1051E00090F8FC01022801D00328C5D14888012885
:1051F00009D1C4F80422D4F81402826820469047EA
:105200002046FFF71EFC3046BDE8F08170B50D4624
:105210000978044600262879C1F34112012AC1B257
:1052200006D06878A0B301281FD003283FD107E03B
:10523000D4F814022946826820469047002070BDA9
:1052400094F8FC01022817D003282CD1688828B9CB
:1052500021B1802902D02046FFF7BFFED4F8140206
:10526000294682682046904713E094F8FC01022802
:1052700002D0032817D103E0C9B180291BD116E061
:105280006888A0B9480604D02046FFF7F8FCE5E797
:1052900003E02046FFF7D5FB09E094F8FC01022863
:1052A00007D003280BD029462046FFF798FB30464D
:1052B00070BD4806FBD02046FFF78FFEF7E70806D3
:1052C00001F07F0004EB001501D5143501E005F570
:1052D00082752046FFF7DAFD00B10120294602223F
:1052E00028602046FFF7A0FBE1E770B5054690F87F
:1052F000FC010C4603280DD1207902280AD8D5F8E4
:105300001402826828469047E08830B92846FFF7A3
:1053100098FB02E02846FFF762FB002070BD00000A
:1053200070B54C7801220D781C4B012CD0F81C482C
:1053300002FA05F218D044EA0242C0F81C280A78A2
:1053400000EB4210D0F8002B12040BD40A89CC7861
:10535000D0F8001BC2F30A02114343EA8443194305
:10536000C0F8001B002070BD92B21443C0F81C4866
:105370000A7800EB4210D0F800492404F2D40C89DA
:10538000CD78D0F80019C4F30A06AC04314344EADE
:10539000825211431943C0F80019E3E7008000105E
:1053A000D0F800196FF30A01C0F80019D0F80818F6
:1053B000C1F34101022905D1D0F8001941F00301E0
:1053C000C0F80019D0F8041841F48071C0F804182E
:1053D0000020704770B504460699049D0D98012978
:1053E0000CD0E06840F04000E060204600F02AF871
:1053F0004FF48030A063012D17D01EE0A26B01286E
:105400000F4922F48030A063E06800EA0100E06008
:10541000E06820F44010E06003D1E06840F48010C0
:10542000E060204600F00EF8E5E7A06840F00600D6
:10543000A060A06840F02000A060002070BD0000C7
:10544000BFFFBDFF0C49012202E0521C8A420BD86B
:105450000369002BF9DA0369012243F001030361B8
:1054600004E0521C8A4201D9032070470369DB071C
:10547000F7D1002070470000400D030010B54B78B5
:1054800001220C78012B02FA04F3D0F83C4816D024
:1054900024EA0343C0F83C38D0F81C380C78A2400A
:1054A00023EA0242C0F81C28097800EB4110D0F82A
:1054B000001B21F40041C0F8001B002010BD9BB26E
:1054C0009C43C0F83C48D0F81C380C78A24092B2FB
:1054D0009343C0F81C38097800EB4110D0F800194C
:1054E00021F40041C0F80019E7E710B5D0F804181E
:1054F00021F00201C0F804180320FBF705FA002090
:1055000010BD10B5D0F8041841F00201C0F804181D
:105510000320FBF7F9F9002010BD00002DE9F0474A
:1055200004460E46DDE90A0ADDF83C80089FA26BBE
:105530005FEA08014FF0000542F40011A1630BD1AE
:10554000A16B21F40011A163216841F040012160A9
:10555000216841F0800121604FF00009C4F8009EED
:10556000D4F800180128C4F8001821D003281FD04F
:10557000D4F8000840F0030002E000BF40F0010052
:10558000C4F800081021204600F0C6FA204600F0BA
:10559000B3FAFF2248464FF090434FF0FF31C4F872
:1055A0001098C4F81498C4F81818C4F81C9816E099
:1055B000D4F80008002BE3D0E0E700BF04EB45116E
:1055C000D1F800C9BCF1000F02DAC1F8003901E0DE
:1055D000C1F80009C1F81009C1F808296D1CAE42D4
:1055E000ECD8002111E000BF04EB4115D5F800CB49
:1055F000BCF1000F02DAC5F8003B01E0C5F8000B72
:10560000C5F8100BC5F8082B491C8E42ECD8D4F80D
:105610001018012F21F48071C4F810180AD115490F
:10562000154AC4F83018D4F830181143C4F83018AB
:10563000D4F830186FF08041A06161611FB9A06992
:1056400040F01000A061A069BAF1000F0B4A40EAD7
:105650000200A06103D0A06940F00800A061B8F189
:10566000010F03D1A06906490843A0610020BDE8ED
:10567000F0870000000180000300010000383C803A
:1056800004000040816821F0010181600020704722
:1056900030B50B784D784D4C012D00EB431329D0DC
:1056A000D3F8105B6FF31205C3F8105B0B7800EBB7
:1056B0004313D3F8105B2540C3F8105B4B690BB163
:1056C0008B684B61012A0B7800EB4312D2F8103B38
:1056D00043F40023C2F8103B0A788C6800EB4212B6
:1056E000D2F8103BC4F3120443EA0403C2F8103B9F
:1056F0005BD060E04D69002DD3F810593AD06FF3BC
:105700001205C3F810590B7800EB4313D3F8105966
:105710002540C3F810594C698B689C4200D94B61F5
:105720000B7800EB4313D3F8104944F40024C3F87A
:1057300010490B784C6900EB4313C4F31205D3F8FE
:1057400010492C43C3F81049012A27D04A693AB1BD
:105750000C78D0F834280123A3401A43C0F8342829
:10576000097800EB4110D0F8001941F00441C0F86D
:10577000001929E02540C3F810590B7800EB4313BA
:10578000D3F8104944F40024C3F810490B7800EB17
:105790004313D3F810496FF31204D3E70A780B6967
:1057A00000EB4212C2F81439DAE70B78CA6800EB52
:1057B0004313C3F8142B097800EB4110D0F8001BF9
:1057C00041F00441C0F8001B002030BDFFFF07E09E
:1057D0000023C0F8103B0129D0F8101B41F4002130
:1057E000C0F8101BD0F8101B41F01801C0F8101BB6
:1057F000D0F8101B41F0C041C0F8101B05D14FF08C
:105800008021C0F8142BC0F8001B002070474A7894
:105810000B78012A00EB43120BD0D2F8003B23F4A3
:105820000013C2F8003BCA78032A17D0022A15D009
:105830001DE0D2F8003923F40013C2F80039CA7809
:10584000032A01D0022A12D1097800EB4110D0F8C6
:10585000001941F08051C0F8001908E0097800EB08
:105860004110D0F8001B41F08051C0F8001B00200F
:1058700070474A780B78012A00EB431214D0D2F813
:10588000003B002B05DBD2F8003B23F08043C2F83D
:10589000003B097800EB4110D0F8001B41F40011E7
:1058A000C0F8001B00207047D2F80039002B05DB40
:1058B000D2F8003923F08043C2F80039097800EBB0
:1058C0004110D0F8001941F40011C0F80019E9E7BF
:1058D000F8B54B786FF060450E78834C012B00EBE8
:1058E00046132FD0D3F8106B6FF31206C3F8106B6A
:1058F0000B7800EB4313D3F8106B2640C3F8106B02
:105900004C69002C7ED08B680F78E618761EB6FBAB
:10591000F3F300EB4714D4F8106B9BB205EAC345D0
:105920002E43C4F8106B8C680D785C4300EB451374
:10593000D3F8105BC4F312042543C3F8105B012AAB
:1059400073D0B2E04E6966B3D3F810696FF31206F4
:10595000C3F810690B7800EB4313D3F810692640A5
:10596000C3F810694E698C680B782644761EB6FB26
:10597000F4F400EB4313D3F8106905EAC44434434C
:10598000C3F810490B784C6900EB4313C4F31205BC
:10599000D3F810492C43C3F81049CB78012B16D00B
:1059A00027E0D3F810592540C3F810590B7800EBC5
:1059B0004313D3F8104944F40024C3F810490B787A
:1059C00000EB4313D3F810496FF312040FE00B7888
:1059D00000EB4313D3F8104924F0C044C3F8104936
:1059E0000B7800EB4313D3F8104944F00054C3F88C
:1059F0001049012A12D0CB78012B17D04B692BB359
:105A00000D7800E036E0D0F834380124AC40234370
:105A1000C0F83438CB78012B08D017E00C780B692C
:105A200000EB4414C4F81439F4E738E0D0F808382F
:105A3000DB050B7800EB4313D3F8004902D444F0A4
:105A4000005401E044F08054C3F800490B7800EBA7
:105A50004313D3F8004944F00444C3F80049CB7819
:105A6000012B3ED100928B8A0A78C9689BB200F064
:105A7000E9F836E00B788D6800EB4313D3F8104B50
:105A8000C5F312052C43C3F8104B0B7800EB4313FE
:105A9000D3F8104B44F40024C3F8104B4FE70B78B5
:105AA000CA6800EB4313C3F8142BCA78012A0FD13C
:105AB000D0F80828D2050A7800EB4212D2F8003B51
:105AC00002D443F0005301E043F08053C2F8003B9E
:105AD000097800EB4110D0F8001B41F00441C0F8F8
