:020000040800F2
:10000000A8F502200D020008CB280008FD240008F6
:10001000C92800088D0300085137000800000000BF
:100020000000000000000000000000000B36000887
:100030007D04000800000000EF2800080D360008CD
:1000400027020008270200082702000827020008EC
:1000500027020008270200082702000827020008DC
:100060002702000827020008270200089103000861
:100070009D03000827020008270200082702000845
:1000800027020008270200082702000827020008AC
:10009000270200082702000827020008270200089C
:1000A000270200082702000827020008270200088C
:1000B000270200082702000827020008270200087C
:1000C000270200082702000827020008270200086C
:1000D000270200082702000827020008270200085C
:1000E000270200082702000827020008270200084C
:1000F000270200082702000827020008270200083C
:10010000270200082702000827020008270200082B
:10011000270200082702000827020008270200081B
:10012000A90300082702000827020008B5030008F9
:1001300027020008270200082702000827020008FB
:1001400027020008270200082702000827020008EB
:10015000C1030008CD030008270200082702000899
:1001600027020008270200082702000827020008CB
:1001700027020008270200082702000800000000EC
:1001800027020008270200082702000827020008AB
:10019000270200082702000827020008270200089B
:1001A000270200082702000827020008270200088B
:1001B000270200082702000827020008270200087B
:1001C000270200082702000800000000270200089C
:1001D000270200082702000827020008270200085B
:1001E000270200082702000827020008270200084B
:1001F0002702000827020008DFF80CD000F068F89A
:1002000000480047F1460008A8F50220064880474C
:1002100006480047FEE7FEE7FEE7FEE7FEE7FEE7EB
:10022000FEE7FEE7FEE7FEE7FD360008F9010008FD
:100230002DE9F05F0546002092469B46884606461B
:10024000814640241BE0284641464746224600F0AE
:100250002FF853465A46C01A914110D311461846FA
:10026000224600F016F82D1A67EB01084F46224689
:100270000120002100F00DF817EB00094E41201E6F
:10028000A4F10104DFDC484631462A464346BDE876
:10029000F09F202A04DB203A00FA02F10020704788
:1002A0009140C2F1200320FA03F3194390407047B4
:1002B000202A04DB203A21FA02F00021704721FABB
:1002C00002F3D040C2F12002914008431946704722
:1002D000064C074D06E0E06840F0010394E8070093
:1002E00098471034AC42F6D3FFF78AFFE04B000882
:1002F000004C00080146014801F0E5BA2C0000203E
:10030000044810B501F0F1FA042801D0012010BD15
:10031000002010BD2C00002038B501208DF8000011
:100320009DF80000012801D0022038BD064801F0E8
:10033000F2FA040006D104484FF4006101F08AF992
:1003400000B10124204638BD2C00002038B500241F
:10035000009313460A460146034801F097FB00B19B
:100360000124204638BD00002C00002038B50024B0
:10037000009313460A460146034801F05FFC00B1B2
:100380000124204638BD00002C000020FEE70000BC
:10039000014800F097B80000C8130120014800F0A0
:1003A00091B8000068130120014800F08BB80000EC
:1003B00028140120014800F085B8000088140120AD
:1003C000014800F07FB8000008130120014800F048
:1003D00079B80000E814012001681823CAB2103A65
:1003E000B2FBF3F2054B6FF30901032A9B5CC36573
:1003F00000D9091D81650846704700002C4B000894
:1004000010B583694FF0C074826A0146002053B171
:10041000B3F5005F15D072B1012A0CD0022A0AD0C0
:10042000032A09D104E01AB1012A06D0022A03D115
:10043000C96AC90100D5012010BDC96AA142FAD01C
:1004400010BD002AF7D0012AF2D0022AF3D0032AE5
:10045000F3D010BD30B50468256825F480252560EB
:10046000046863608368402B036803D09960006868
:10047000C26030BD9A600068C16030BD7047002224
:10048000AFF300800E4B70B505465C7A0120002C5E
:1004900014D15E7A03F108009C555E7A03EB860660
:1004A00075605D7A2A54587A421C5A723A232F2278
:1004B000303008704B7020468A70CC7070BD0000E0
:1004C000980502202DE9F84304464FF00009644BDB
:1004D0000820CDF800904FF41652A56D94F85C10EA
:1004E0001B682E68B3FBF2F700FA01F131420FD01E
:1004F00021680A6852070BD50A6822F004020A60D4
:1005000094F85C108840A860606D40F00100606560
:1005100094F85C104FF0010808FA01F0304208D05E
:1005200021684969090604D5A860606D40F00200A1
:10053000606594F85C1004208840304208D021683F
:100540000968890704D5A860606D40F00400606503
:1005500094F85C1010208840304218D02168096857
:10056000090714D5A86020680168490304D500680C
:10057000000308D5A16C07E00168C90503D4016830
:1005800021F008010160216C09B12046884794F8E8
:100590005C1020208840304231D021680968C906AB
:1005A0002DD5A86094F8350005282068016806D08C
:1005B000490347D5006800031DD4616C1CE021F09D
:1005C000160101602068416921F080014161206CC1
:1005D00008B9A06C20B12068016821F00801016011
:1005E00094F85C303F229A40AA6084F8349084F8F2
:1005F0003580216D1FE0E16B09B120468847606DB1
:1006000000282BD0606DC00714D0052084F8350079
:100610002068016821F0010101600098401C0090F1
:10062000B84203D820680068C007F6D184F8349037
:1006300084F83580E16C002910D001B02046BDE877
:10064000F04308470168C905D5D4036823F01003B7
:10065000036084F8349084F83580CCE7BDE8F883F3
:10066000200000202DE9F047044600F0AFF90546D0
:1006700064B14FF0000984F83490022184F83510F9
:100680002068016821F0010101600EE00120BDE851
:10069000F08700BF00F09AF9401B052805D92021FA
:1006A0006165032084F83500F1E720680068C00721
:1006B000F0D1D4E90020D4E90251D4E9043C284324
:1006C00004F1180519430843116895E8E00140EA70
:1006D0000C001C4B2843194040EA060040EA070082
:1006E000B8F1040F40EA010003D1D4E90B13194318
:1006F0000843106020680126656A4069042D20F0D7
:10070000070045EA00050CD1D4E90A01054341B1CF
:100710002046FFF775FE20B14020606584F8356003
:10072000B4E7206845612046FFF756FE94F85C3038
:100730003F229A408260C4F8549084F835600020CB
:10074000A5E700003F8010E02DE9F041044690F855
:10075000340000250128A66D0ED094F835C001277D
:10076000002084F83470BCF1010F07D0022584F812
:1007700034002846BDE8F0810220FBE7022784F818
:10078000357060652046FFF765FE94F85C103F20E9
:100790008840B0602068016841F01601016020685F
:1007A000416941F080014161206C20B120680168FD
:1007B00041F0080101602068016841F00101016019
:1007C000D7E7000070B5044600F000F90546601C4C
:1007D00002D004480078044400F0F8F8401BA0421E
:1007E000FAD370BD140000202DE9F84FDFF89CE12A
:1007F00000224FF001084FF0030B4FF00F0A00BF2B
:100800000B6808FA02F42340A34271D14D68022D0F
:1008100001D0122D0FD1D5080E69570700EB8505C1
:10082000A9462D6AFF0E0AFA07FCBE4025EA0C0510
:100830002E43C9F820600F79550006680BFA05FCB5
:1008400007F0030726EA0C06AF40374307604E68FF
:10085000012E05D0022E03D0112E01D0122E0ED162
:100860008668CF6826EA0C06AF4037438760466843
:100870000F79A643C7F30017974037434760C46812
:100880008E6824EA0C04AE402643C6604C68E4003F
:1008900075D53F4C256845F480452560246822F0D5
:1008A0000306950704F4804400943A4C2D0F264427
:1008B000D6F80848DFF8E0C00AFA05F7604524EAF0
:1008C000070401D100272EE0344FB84201D101279F
:1008D00029E0334FB84201D1022724E0314FB8421A
:1008E00001D103271FE0304FB84202D104271AE09C
:1008F00045E02E4FB84201D1052714E02C4FB842F5
:1009000001D106270FE02B4FB84201D107270AE09B
:10091000294FB84201D1082705E0284FB84201D13C
:10092000092700E00A27AF4027437546C6F8087834
:100930004E68DEF80040F60324EA030400D51C43A9
:10094000124E2C60361D4D683468AD0324EA030452
:1009500000D51C430D4F346008374D683C68ED02EC
:1009600024EA030400D51C43084D3C600C354E6856
:100970002C68B60224EA030400D51C432C60521CE8
:10098000102AFFF43DAFBDE8F88F0000003C0140A5
:1009900044380240003001400000024000040240A0
:1009A00000080240000C0240001002400014024007
:1009B00000180240001C02400020024000240240B7
:1009C0000AB1816170470904FBE7000001488068B3
:1009D000704700001400002002488168027811442A
:1009E0008160704714000020032010B500F096F8D5
:1009F000002000F005F800F023F8002010BD0000F2
:100A000070B50D4D04464FF47A700C4A297812687F
:100A1000B0FBF1F0B2FBF0F001F059FD48B9102C39
:100A200007D200222146501E00F058F800206C60CA
:100A300070BD012070BD00001400002020000020C7
:100A40001F4808B5016841F080510160006800F05E
:100A5000805000901A48001D016841F480410160F7
:100A6000006800F480400090032000F057F8002256
:100A70006FF00B00114600F031F800226FF00A0011
:100A8000114600F02BF800226FF00900114600F02B
:100A900025F80022501F114600F020F80022101FF8
:100AA000114600F01BF80022901E114600F016F8C7
:100AB0000022BDE80840501E114600F00FB80000AB
:100AC00040380240410900F01F028900012001F175
:100AD000E0219040C1F80001704700000E4BF0B4D7
:100AE0001B680D46C3F30223C3F10706042E00D989
:100AF0000426191D072901D2002300E0DB1E012472
:100B000004FA06F19C40491E2940641E9940144095
:100B10002143F0BC01F0DABE0CED00E0064900F024
:100B2000070210B54FF6FF040868044B204040EA66
:100B300002201843086010BD0CED00E00000FA052B
:100B40001848F8B5016841F0805101600068164C02
:100B500000F080500090206840F480302060FFF763
:100B600035FF4FF47A76054605E000BFFFF72EFF0C
:100B7000401BB0420FD86068C003F7D5206840F42E
:100B800000302060FFF722FF054606E0FFF71EFF5A
:100B9000401BB04201D90320F8BD60688003F5D541
:100BA0000020F8BD40380240007000402DE9F84FA9
:100BB00004460078DFF824944FF000063746C0075B
:100BC0000ED0D9F8001021F40001C9F80010D9F8AE
:100BD0000010626B1143C9F80010606B00B9012668
:100BE000FE4D2068843500030ED5E16B286820F4A3
:100BF000401008432860E06BB0F5801F01D010B1B1
:100C000002E0012600E0012720684FF4800BC002BB
:100C10000CD5216C286820F4400008432860206C23
:100C2000584501D1012601E000B901272068C10122
:100C300000D50126800666D5E8483830016841F0C5
:100C4000805101600068DFF898A300F080500090A8
:100C5000DAF8001041F48071CAF80010FFF7B6FE10
:100C6000804605E0FFF7B2FEA0EB080064287DD8BF
:100C7000DAF80000C005F5D5DFF8608308F16808F0
:100C8000D8F8000010F440702AD0218E01F4407191
:100C9000814225D0D8F80010D8F8002021F4407106
:100CA00042F48032C8F80020D8F8002022F48032C4
:100CB000C8F80020C8F80010D8F80000C0070FD00E
:100CC000FFF784FE824607E0FFF780FEA0EB0A01F3
:100CD00041F288308142CAD8D8F800008007F3D5A5
:100CE000206BC0F3012103297ED0D9F8001021F434
:100CF000F811C9F80010228ED8F80010C2F30B02C8
:100D00001143C8F800102078C00607D5286820F0E5
:100D1000807028602868A16B084328602188AF484C
:100D20008830490405D5626E016821F440311143D1
:100D300001602188090405D5A26E016821F44021D3
:100D4000114301602168C90305D5E26E016821F4F1
:100D50004011114301602168890305D5226F0168A4
:100D600021F4400111430160217800E034E149069B
:100D700005D5626C016821F00301114301602178FF
:100D8000090605D5A26C016821F00C011143016030
:100D90002188C90505D5E26C016821F030011143B5
:100DA00001602188890505D5226D016821F0C00107
:100DB000114301602188490505D5626D016821F460
:100DC0004071114301602188090505D5A26D0168B4
:100DD00021F44061114301602188C90407D5E26D07
:100DE000016821F4405100E05FE011430160218877
:100DF000890405D5226E016821F440411143016048
:100E00002168490205D5A26F016821F08061114374
:100E1000016021684FF0006A890209D5E26F01681C
:100E200021F0006111430160E16F514500D10127BC
:100E300021680A0700D50127490305D5626F0168BB
:100E400021F04071114301602168090206D5D4F8F0
:100E50008020016821F0805111430160216849011F
:100E600006D5D4F88420016821F0005111430160B7
:100E70002068000106D5D4F88810286820F000709A
:100E8000084328602068C00006D5D4F88C10286874
:100E900020F0806008432860DFF84891012E0ED0D2
:100EA0002068B0F1007F0AD08FE04F4AD9F80030B7
:100EB000104023F4F8120243C9F800201BE7D9F8C8
:100EC00000004E4620F08060C9F80000FFF77EFD6C
:100ED000804605E0FFF77AFDA0EB080064287BD888
:100EE00030680001F6D421783C487C30C90712D024
:100EF000616B81B9237A62680168D0F800C0920101
:100F0000C1F3014142EA0142CCF3036142EA0161CB
:100F100041EA0371016021680A0303D5E26BB2F56F
:100F2000801F04D0C9021AD5216C594517D16368B6
:100F3000016894F80CC002689B01C1F3014143EAC7
:100F40000141C2F3027241EA0C6141EA027101609F
:100F50002968626A21F01F01521E1143296021682D
:100F6000C90110D5238A62680168D0F800C09201D7
:100F7000C1F3036142EA034242EA0162CCF3027127
:100F800042EA01710160216889010CD56168228AF9
:100F9000237B94F808C0890141EA024141EA0361D8
:100FA00041EA0C7101603168B04641F08061316006
:100FB000FFF70CFD064604E0FFF708FD801B6428E0
:100FC0000AD8D8F800000001F6D5E7B3D9F8000038
:100FD0004E4620F0805009E07BE0000008380240D7
:100FE0000070004000380240FFFCFF0FC9F800000D
:100FF000FFF7ECFC074604E0FFF7E8FCC01B6428A1
:1010000067D83068C0438000F6D5216835480A03A8
:1010100001D5E26B1AB1C9021DD5216CD9B963693A
:101020000168277E02689B01C1F3014143EA014345
:10103000C2F3027143EA076242EA01710160296862
:101040006FF0FF0300E04BE0A26A21F4F85103EBDC
:101050000222114329602168890212D5E16F5145AE
:101060000FD1238C6269016807689201C1F30361A3
:1010700042EA034242EA0162C7F3027142EA0171A5
:1010800001602178090716D561690268D0F800C0AF
:101090008B01277FC2F30362CCF3014143EA014194
:1010A00041EA026141EA077101602868E16A20F4BF
:1010B000403008432860306840F080503060FFF7CF
:1010C00085FC044608E000BFFFF780FC001B642895
:1010D00002D90320BDE8F88F3068C0438000F3D404
:1010E0000020F7E7883802402DE9F04705000F4659
:1010F00063D0444E306800F00F00B84209D2306827
:1011000020F00F0038433060306800F00F00B84224
:1011100053D128683C4C810712D5400703D520687D
:1011200040F4E05020602878000703D5206840F4A0
:1011300060402060A968206820F0F000084320602B
:101140002878C0072AD0304968680839012810D0AB
:101150000968022810D0890700292EDA216821F0B9
:10116000030101432160FFF731FC804641F28839D9
:101170000DE009688903EFE78901EDE7FFF726FC39
:10118000A0EB0801494502D90320BDE8F087686853
:10119000216801F00C01B1EB800FEFD1306800F055
:1011A0000F00B8420BD9306820F00F003843306090
:1011B000306800F00F00B84201D00120E5E7287840
:1011C000400705D5E968206820F4E0500843206016
:1011D0002878000706D52869216821F4604141EA92
:1011E000C000206000F01CF82168084AC1F3031118
:1011F000515CC840064908600020FFF701FC002050
:10120000C3E70000003C024008380240344B0008AD
:1012100020000020014800687047000020000020E6
:10122000154910B51548096811F00C0213D014497E
:10123000042A0FD0082A0ED10F4C241F22682368DD
:1012400002F03F025B0207D52068C0F38810A0FBC4
:10125000010106E0084610BD2168C1F38811A1FB19
:1012600000010023FEF7E4FF2168C1F30141491C9E
:101270004900B0FBF1F010BD083802400024F40032
:101280000080BB00F0B50D461F49204C002887B0F8
:1012900016464FF000004FF002020F684FF00303B4
:1012A00019D047F004070F60096801F004010591A7
:1012B00011020091CDE90120CDE9033014486946BF
:1012C000FFF792FA206845EAC60120F0784008430B
:1012D000206007B0F0BD47F001070F60096801F01A
:1012E000010105914FF480710091CDE90120CDE914
:1012F000033008486946FFF777FA2068354320F045
:10130000EC602843E4E7000030380240083802402F
:1013100000080240000002402DE9F84F05004FF0A0
:1013200000076ED02878DFF82093A9F1040AC007DF
:10133000AAF104044CD0D9F800104846C1F3810149
:10134000012908D00068C0F3810002280AD1DAF828
:101350000000400206D52068800339D5686800285F
:10136000DFD035E06868B0F5803F0BD010B1B0F544
:10137000A02F11D0206820F480302060206820F455
:10138000802002E0206840F480302060686890B1DE
:10139000FFF71CFB06460AE0206840F4802020602E
:1013A000F0E700BFFFF712FB801B642872D82068AB
:1013B0008003F7D50CE0FFF709FB064605E000BF08
:1013C000FFF704FB801B6428F0D820688003F7D463
:1013D0002878800742D5D9F80010484611F00C0F44
:1013E00008D00068C0F3810002280BD1DAF80000B1
:1013F000400207D42068800718D5E868012800D18A
:1014000014E01EE1E8680028206817D040F00100D1
:101410002060FFF7DBFA064605E000BFFFF7D6FACB
:10142000801B0228C2D820688007F7D52869216868
:1014300021F0F80141EAC00020600FE020F0010037
:101440002060FFF7C3FA064605E000BFFFF7BEFACB
:10145000801B02281ED820688007F7D42878000750
:1014600029D5794869696C3000298046016812D015
:1014700041F001010160FFF7A9FA064605E000BF4F
:10148000FFF7A4FA801B022804D8D8F800008007D0
:10149000F6D510E089E021F001010160FFF796FA2E
:1014A000064604E0FFF792FA801B02287DD8D8F8A0
:1014B00000008007F6D4287840076BD5DFF88881D4
:1014C00008F13808D8F80000C0000BD4D8F8001094
:1014D00041F08051C8F80010D8F80000012700F052
:1014E0008050009059480168C90512D401688346AC
:1014F00041F480710160FFF769FA064605E000BF1C
:10150000FFF764FA801B64284FD8DBF80000C005A1
:10151000F6D54D4EA868683601280AD008B10528CE
:1015200011D0306820F001003060306820F00400F5
:1015300002E0306840F001003060A868A0B1FFF719
:1015400045FA83460CE0306840F004003060F0E774
:10155000FFF73CFAA0EB0B0141F28830814268D8DA
:1015600030688007F4D50EE0FFF730FA834607E0D5
:10157000FFF72CFAA0EB0B0141F28830814258D8DA
:1015800030688007F4D42FB1D8F8001021F08051D2
:10159000C8F80010A869E0B3D9F80010C1F38101C0
:1015A00002294ED00228206800E042E020F080703E
:1015B000206003D0FFF70AFA05463DE0FFF706FA80
:1015C000064604E0FFF702FA801B022831D82068A3
:1015D0008001F7D4D5E90921DFF874C0D5E9070601
:1015E00095F830304F0895F82C1030430CEB074538
:1015F00045EA8212104340EA016040EA0370CAF8EB
:101600000000206840F080702060FFF7DFF9054699
:1016100005E014E0FFF7DAF9401B022809D820683A
:101620008001F7D50BE000BFFFF7D0F9401B02287F
:1016300002D90320BDE8F88F20688001F4D400208F
:10164000F8E70120F6E7000008380240007000408B
:101650000000FFFFFEB504460D46416C032084F8F0
:101660003400032920D0B5F5805F1DD0B5F5006F9B
:1016700005D045B1A06B40F00060A06309E02046B2
:1016800001F0CEFD02E0204601F0A3FDA16B014375
:10169000A163A06B012658B1216840F2FF50886316
:1016A00084F834600120FEBDA06B40F08050E4E778
:1016B000211DD4E905070EC9CDE900500297206825
:1016C00001F018FC84F834600020FEBDF0B5426ED5
:1016D000120E93090B70C2F3830402F003024C70E4
:1016E0008A70426E120CCA70B0F86420120A0A7135
:1016F00090F864204A714FF6FF73826E120E03EA6F
:101700000212CA80CB88826EC2F3074214092343B7
:10171000CB8002F00F020A72B0F868200025C2F3F5
:101720000722D3094B72C2F38014C2F34016C2F3EE
:1017300000178C72CE720F734D730123446C4FF4FB
:1017400000766CB1012C46D0026840F2FF519163E3
:10175000816B41F08051816380F834300120F0BD0D
:101760009207120D0A610C6990F8682044EA82021F
:101770000A610C69C26E120E9709C2F3C20C3C4397
:101780000C6102F0070281F814C04A75C26EC2F300
:101790000742940757098F75640FC2F38202CA7516
:1017A0000C760A7EB0F86C40C4F3072442EAD412E7
:1017B0000A760A69521C42650F7EBF1CBA40426518
:1017C0000F7A03FA07F787654FEA572C02FB0CF2F2
:1017D000C0E917261CE090F868209206920A0A6178
:1017E0000C69C26E120E44EA02220A610C69C26ED2
:1017F000C2F3074214430C610A69B0F86C40521CF2
:101800004FEA82224265C4F30724C0E916620666E5
:10181000C4F380124FEA84644A764FEA54648C76AB
:1018200090F86C208C7E4FEAD21602F07F0244EAD8
:1018300006048C76CA7650F8702F4FEA12624FEA8F
:10184000D2140C77C2F34116C2F382074FEA8272B8
:101850004E778F774FEA1272CA77CC7F0268C2F355
:10186000074244EA9214CC77C2F3401602F0010218
:1018700081F8206081F8215081F822200288C2F38B
:1018800007224FEAD21481F82340C2F38015C2F335
:101890004016C2F30017C2F3810C02F0030281F874
:1018A000245081F8256081F8267081F827C081F8DE
:1018B000282000784FEA500081F8290081F82A306A
:1018C0004FF00000F0BD426C0A60826C4A60C26C4E
:1018D0008A60026DCA60426D0A61826D4A61C26DA2
:1018E0008A61006EC8610020704770B5B0F8501072
:1018F000002504460068090401F048F918B1A16BFD
:101900000143A16304E02068002101F0EDFA0546DF
:10191000C5F3432070BD70B5040004D094F83400C2
:10192000002510B105E0012070BD2046257700F0AC
:101930003BF8032084F83400204600F007F801202B
:10194000A563256384F83400002070BD3EB50446CD
:101950007620002100910B460A46CDE9011020684F
:1019600001F0C8FA2068416821F480714160206864
:1019700001F0D1FA2068416841F480714160022091
:10198000FEF720FF204601F0D1FB4FF0010520B902
:10199000204601F058FB002805D084F83450A16B94
:1019A0000143A16301203EBD2DE9F0432A49814650
:1019B000006887B088424CD12848016841F0800116
:1019C0000160006802240025694600F0800005904F
:1019D00003260B27C0208DE8F1002148FEF704FF05
:1019E000780269468DE8F1001E4F3846FEF7FCFE8E
:1019F0000A21A002CDE903618DE83100694638462D
:101A0000FEF7F2FE184C4FF0B051184840224FF448
:101A100000184FF4804C2060031561608714A260A9
:101A20002020C4E90353C4E90705042182042046A9
:101A3000C4E90916C4E90B28C4E9057CFEF712FEC7
:101A400018B1A1210AA001F084FEC9F84040C4F8F1
:101A5000389007B0BDE8F083001C014044380240D4
:101A6000000C024000180240081301208864024064
:101A70002E2E2F5372632F73746D3332663778783E
:101A80005F68616C5F6D73702E6300002DE9F04F2D
:101A900087B09A4617460E460446DDF840B0FEF77A
:101AA00095FF00903EB194F83400012807D0A06B58
:101AB00040F000500FE0A06B40F000600BE0E16DE3
:101AC00007EB0A004FF00008C4F83880884204D9B8
:101AD000A06B40F00070A0637DE0032084F8340028
:101AE0002068C0F82C80606C012800D07F0220683C
:101AF0004FF4007100F030FF40F2FF594FF0010544
:101B000030B12268C2F83890A16B0143A16360E054
:101B100002204FF0FF324FEA4A239021CDE9031013
:101B2000CDE90123CDE90585206801A901F0ACF8D4
:101B3000BAF1010F06D9022020632068394600F06F
:101B400097FF04E025633946206800F0AAFF0028CB
:101B5000D7D122E0406B000409D50027206801F0AE
:101B6000DEF946F827007F1C082FF7D32036BBF19B
:101B7000000F05D0FEF72AFF0099411A59450CD3F2
:101B80002168C1F83890A06B40F00040A06384F851
:101B90003450032007B0BDE8F08F2068416B11F48A
:101BA000957FD7D0416BC90509D5BAF1010F06D988
:101BB000616C032903D001F01BF80028A1D1206833
:101BC000416B090709D5C0F83890A06B40F00800B8
:101BD00028E084F834500120DCE7416B890705D503
:101BE000C0F83890A06B40F002001BE0416B890602
:101BF0001AD5C0F83890A06B40F0200012E000BF6A
:101C000001F08DF9BBF1000F01C605D0FEF7DEFE35
:101C10000099411A594507D32168C1F83890A06B43
:101C200040F00040A063D4E72068416B8902E7D40C
:101C3000C0F8389084F834500020ABE72DE9F04F1D
:101C400087B09A4616460D460446FEF7BFFE834609
:101C50003DB194F83400012807D0A06B40F000504B
:101C60000DE0A06B40F0006009E0E26D002006EBA3
:101C70000A01A063914204D9A06B40F00070A063F8
:101C80009CE00321814684F834102168C862606CAE
:101C9000012800D0760220684FF4007100F05CFE4D
:101CA00040F2FF584FF0010730B12268C2F8388087
:101CB000A16B0143A16317E0BAF1010F06D92020FF
:101CC00020632068314600F0ADFF05E0102020635E
:101CD0002068314600F0BFFF060008D02168C1F837
:101CE0003880A06B3043A06384F8347066E04846C7
:101CF0004FF0FF314FEA4A23B9469022CDE904075D
:101D0000CDE90220CDE900132068694600F0BCFF50
:101D100022E0406B40040AD55FF00007206805EB25
:101D2000870101F010F97F1C082FF7D32035109898
:101D300030B1FEF74BFEA0EB0B01109881420BD3A4
:101D40002268C2F83880A06B3043A06384F83490D6
:101D5000032007B0BDE8F08F2068416B11F48D7F40
:101D6000D7D0416BC90510D5BAF1010F0DD9616CFF
:101D700003290AD000F03CFF38B123684946C3F874
:101D80003880A26B0243A26316E02068416B09070A
:101D900008D5C0F83880A06B40F00800A06384F834
:101DA00034900BE0416B89070AD54946C0F838806A
:101DB000A06B40F002000CE084F834100120C8E76A
:101DC000416BC0F83880C906494604D5A06B40F085
:101DD0001000A063F0E784F834100020B9E790F811
:101DE0005C1001290CD0012180F85C1001680022F0
:101DF0004B6823F003034B6080F85C20104670476B
:101E00000220704770472DE9F047040005D094F890
:101E10005D000025A56218B107E00120BDE8F0874C
:101E2000204684F85C5000F051F8022284F85D20CE
:101E30004FF4E0632068016821F040010160E06830
:101E4000984201D9002101E04FF48051B0F5706F44
:101E500002D0984200D0A5624FF00109266B2EB93E
:101E6000984201D9226301E0C4F83090D4E90468B3
:101E7000D4E90102278B46EA0806A36A104307F457
:101E8000007830432668D4E907C240EA080040EAF7
:101E90000C00CC460427104318433060D4F8188057
:101EA000666B606AE26807EA1847236830433A4382
:101EB0001043084358602068C16921F40061C16182
:101EC000256684F85DC00020A8E700002DE9F04FEA
:101ED00080467A48DFF8E0C100240221D8F800509B
:101EE000032205230615C714654587B04FF4005B30
:101EF0004FF480794FF4003A2BD1056845F48045C2
:101F00000560006800F48040059058038DE81300D8
:101F10006B486946CDE90323FEF766FC694D4FF037
:101F20009051694805F10C0C85E81300C5F81C9028
:101F300028468CE8D008C5E908A4FEF793FB08B151
:101F4000F221B5E0C8F85850C5F8388007B0BDE8B0
:101F5000F08FDFF878C1654528D1036843F400436A
:101F600003600068062300F4004005904FF4A05081
:101F70008DE8130056486946CDE90323FEF734FC8B
:101F8000544D514805F10C031838C5E90004C5F853
:101F90001C902846AC6083E8D008C5E908A4FEF789
:101FA00061FB0028CED04FF48E7181E04348DFF80A
:101FB00028C1001D654525D1056845F4005505601B
:101FC000006800F40050059044208DE81300434859
:101FD0006946CDE90323FEF707FC414D414805F171
:101FE0000C0CC10585E81300C5F81C9028468CE848
:101FF000D008C5E908A4FEF735FB0028A2D04FF4AD
:10200000A37155E0DFF8E0C0654528D1056845F4C7
:1020100080150560006800F4801005904FF4207072
:102020008DE8130031486946CDE90323FEF7DCFB58
:102030002F4D4FF080612B4805F10C0C483085E89E
:102040001300C5F81C9028468CE8D008C5E908A400
:10205000FEF708FB0028A5D04FF4B87128E0DFF8A0
:1020600094C065457FF472AF056845F400150560BE
:10207000006800F4001005904FF4C0408DE8130094
:102080001D486946CDE90323FEF7AEFB1B4D4FF01B
:1020900000711448903013C51848D0C585E8100663
:1020A000EC60183DFEF7DEFA0028A7D04FF4CD71A2
:1020B00013A001F04EFB45E70038004040380240D5
:1020C000000402406813012028600240003C0040E8
:1020D00000080240C81301200034014000100240F3
:1020E00028140120106402400050014000140240F6
:1020F000881401200054014000180240E814012017
:102100002E2E2F5372632F73746D333266377878A7
:102110005F68616C5F6D73702E6300002DE9F041A4
:10212000044604200026A3681BB96568B5F5827FC4
:102130000ED094F85C50012D13D094F85DC00127A7
:10214000002584F85C70BCF1010F0DD0022662E01E
:1021500084F85D002046BDE8F04113460A4600F0D1
:10216000CFB80220BDE8F08159B352B32164B3F572
:10217000004F84F85D002566E5642565A587A4F811
:102180004420A4F84620E58704D12068016821F4A2
:1021900080410160E0684FF4E061884204D8A06D9E
:1021A0008069B0F5005F0CD02068426822F40052CC
:1021B0004260E06888422068416804D921F4805177
:1021C00003E0012627E041F480514160A06D1449ED
:1021D0000164A16D1348C863A16D1348C864A06D64
:1021E0000565B4F846302168226CA06D0C31FEF70D
:1021F000ABFA20680168490603D4016841F0400148
:1022000001602068416841F0200141602068416818
:1022100041F001014160304684F85C50A2E70000C3
:102220005D330008713300083B33000870B54FF48C
:10223000F0551F4A1F4B06465FEA650003EB40015D
:1022400001F5E04132F81040401CA842A1F80048D6
:10225000F4DB194C0022194D10212068401C20602D
:102260002846FEF7ADFB012228460821FEF7A8FB11
:1022700010494FF470421248636801F0E6FE0022F4
:1022800028460821FEF79CFB206840F6B8318842BA
:102290000CDB3046FFF7A3FD012228461021FEF794
:1022A0008FFBBDE87040064801F03ABD70BD0000EC
:1022B000A47A0020481501200C00002000180240DC
:1022C000D80201200B4900200B4A30B44FF470654E
:1022D00002EB400331F8104003F5E043401CA842F4
:1022E000A3F80048F4DB0122044830BC1021FEF7BB
:1022F00067BB0000A47A00204815012000180240A6
:102300002DE9F041044690F85C00002601280DD02C
:1023100094F85D700120D4F804C00025012F84F8E2
:102320005C000FD0BCF5827F0AD102E00220BDE83C
:10233000F081D4F808C0BCF1000F01D1042F01D006
:10234000022692E011B30AB303B394F85D70042F30
:1023500002D0052784F85D702566A163A387E38713
:102360002264A4F84430A4F84630E5642565216869
:102370004A6822F4C0424A60E168B1F5E06F07D9CB
:102380002068416821F48051416031E001266CE011
:1023900021684FF400524B6843F480534B60616DE9
:1023A000896991420CD194F83C10C90721684B68A7
:1023B0005FD043F480434B60E18F00EB5101E18734
:1023C000A16D8969914213D121684A6822F4805233
:1023D0004A60B4F84610C90751D021684A6842F4EF
:1023E00000524A60B4F8461000EB5100A4F84600D1
:1023F00094F85D00A16D04284AD028480864284854
:10240000A16DC863A06D2749C164A06D0565B4F8CE
:1024100046302168226CA06D0C31FEF795F92068DA
:10242000416841F001014160606D0564606DC56304
:10243000606DC564606D0565E38F2268A16B606D9A
:102440000C32FEF781F920680168490603D401685F
:1024500041F0400101602068416841F02001416085
:102460002068416841F002014160304684F85C50C8
:102470005DE723F480434B60E18F49089FE72068C4
:10248000416821F400514160B4F846004008ADE7CE
:10249000054808640548A16DB3E7000067330008EC
:1024A000C73300083B3300085D3300087133000870
:1024B0007047704704284FF0E020016903D021F0F5
:1024C00004010161704741F00401FAE77047401EC2
:1024D000B0F1807F10B501D3012010BD4FF0E02492
:1024E00060610F21601700F0F1F90020A061072161
:1024F000216110BD10B5FFF7E9FF10BDFEE7000038
:10250000214808B5016841F480010160016801F4C7
:1025100080010091016841F400110160006800220F
:10252000114600F4001000900B20FEF7D7FA0B20A4
:10253000FEF7C8FA00220C201146FEF7CFFA0C2055
:10254000FEF7C0FA002238201146FEF7C7FA3820FD
:10255000FEF7B8FA00223B201146FEF7BFFA3B20F7
:10256000FEF7B0FA002244201146FEF7B7FA4420E5
:10257000FEF7A8FA002245201146FEF7AFFABDE8A3
:1025800008404520FEF79EBA30380240044905480D
:1025900010B5FDF774FF0249491E087010BD000018
:1025A00006000020184B00082DE9F04F644887B062
:1025B000016841F010010160016801F0100105910E
:1025C000016841F020010160016801F020010591DE
:1025D000016841F080010160016801F0800105910E
:1025E000016841F004010160016801F004010591F6
:1025F000016841F002010160016801F002010591EA
:10260000016841F040010160016801F0400105915D
:10261000016841F001010160016801F001010591CB
:10262000016841F00801016000680022DFF814A190
:10263000082100F0080005905046FEF7C1F9DFF8C8
:1026400008B140F20117002239465846FEF7B8F9A2
:102650003E48002248F21C01FEF7B2F94FF4006830
:102660003B4800224146FEF7ABF93A4800221121CF
:10267000FEF7A6F94FF4C079374800224946FEF725
:102680009FF901266946032508200024CDE90006AC
:10269000CDE902455046FEF7A7F8CDE90245CDE960
:1026A000007669465846FEF79FF820206946CDE936
:1026B000000427480294FEF797F8022769461C2079
:1026C000CDE900062148CDE90247FEF78DF87002FA
:1026D0006946CDE900071E48CDE902450494FEF79E
:1026E00083F830026946CDE900071C48CDE9024570
:1026F0000494FEF779F816486946CDE90245CDE91C
:102700000086FEF771F811206946CDE900061148F0
:10271000CDE90245FEF768F8F0036946CDE9000609
:102720000A48CDE90245FEF75FF80B486946CDE956
:102730000245CDE90096FEF757F807B0BDE8F08FE7
:1027400030380240001002400014024000180240DD
:1027500000080240000C0240000402400000024059
:102760002DE9F0410E4F00210E48012202253C15B3
:10277000530207604FF47066C0E901140724016238
:102780004162C0E90A1401634163C0E90523C0E95D
:102790000365FFF738FB002800D0FEE7BDE8F081B5
:1027A00000380040B00000202DE9F0410E4F00211C
:1027B0000E48012202253C15530207604FF4706653
:1027C000C0E90114072401624162C0E90A140163EF
:1027D0004163C0E90523C0E90365FFF714FB002846
:1027E00000D0FEE7BDE8F081003C0040140100206D
:1027F0002DE9F0410E4F00210E48012202253C1523
:10280000530207604FF47066C0E9011407240162A7
:102810004162C0E90A1401634163C0E90523C0E9CC
:102820000365FFF7F0FA002800D0FEE7BDE8F0816D
:1028300000340140780100202DE9F0410E4F0021C5
:102840000E48012202253C15530207604FF47066C2
:10285000C0E90114072401624162C0E90A1401635E
:102860004163C0E90523C0E90365FFF7CCFA0028FE
:1028700000D0FEE7BDE8F08100500140DC010020FF
:102880002DE9F0410E4F00210E48012202253C1592
:10289000530207604FF47066C0E901140724016217
:1028A0004162C0E90A1401634163C0E90523C0E93C
:1028B0000365FFF7A8FA002800D0FEE7BDE8F08125
:1028C0000054014040020020FEE77047090700283D
:1028D0004FEA116106DA00F00F0000F1E02080F805
:1028E000141D704700F1E02080F800147047704715
:1028F00030B585B00446372040220DF1080CCDE9F3
:10290000001000236946150120468CE82C0000F0D9
:1029100009FB372141F28832204600F0C9F905B0A1
:1029200030BD000030B50B4A85B004462920114364
:1029300040220DF1080CCDE9001000236946150175
:1029400020468CE82C0000F0EDFA204600F066FAF4
:1029500005B030BD0000108030B585B004461020B1
:102960000DF1080C8501CDE90010402269460023D5
:1029700020468CE82C0000F0D5FA102141F2883274
:10298000204600F095F905B030BD30B585B004465D
:10299000062040220DF1080CCDE900100023694605
:1029A000150120468CE82C0000F0BCFA062141F20B
:1029B0008832204600F07CF905B030BD30B585B0D6
:1029C0000546002469464FF4806000940194029407
:1029D000CDE90340284600F0A5FA0B4A4FF4FA501F
:1029E00041F288311268B2FBF0F04843401E03D236
:1029F0004FF0004005B030BD696B0906F6D540F2D6
:102A0000FF512046A963F5E72000002070B508219A
:102A1000044685B04FF4D5704026CA018DE84300C6
:102A200000256946CDE90352204600F07BFA0F4AA3
:102A30004FF4FA5041F288311268B2FBF0F048438B
:102A4000401E02D24FF000450CE0616B11F0450FC3
:102A5000F6D0606B400701D5042502E0606B4006AC
:102A600000D5A66305B0284670BD000020000020F8
:102A700030B585B00446122040220DF1080CCDE996
:102A8000001000236946150120468CE82C0000F058
:102A900049FA122141F28832204600F009F905B0C6
:102AA00030BD30B585B00446112040220DF1080C30
:102AB000CDE9001000236946150120468CE82C0062
:102AC00000F030FA112141F28832204600F0F0F88F
:102AD00005B030BD30B585B0044640210DF1040C81
:102AE0000720009200230D018CE82B006946204648
:102AF00000F018FA072141F28832204600F0D8F899
:102B000005B030BD10B586B0044600210220C022B9
:102B100043020493CDE90010CDE902216946204625
:102B200000F000FA204600F051F906B010BD30B5B3
:102B300085B0044609200DF1080CC022CDE9001033
:102B4000002369464FF4806520468CE82C0000F095
:102B5000E9F9204600F03AF905B030BD10B586B06D
:102B60000446002133204022CDE90221CDE90010A6
:102B7000130169462046049300F0D4F9332141F251
:102B80008832204600F094F806B010BD30B585B00C
:102B900004460D2040220DF1080CCDE90010002361
:102BA0006946150120468CE82C0000F0BBF90D2188
:102BB00041F28832204600F07BF805B030BD30B5D8
:102BC00085B00C460021054603204022CDE90221B4
:102BD000CDE90010130169462846049300F0A2F9DC
:102BE00003212246284600F039F905B030BD000027
:102BF00010B586B0044600210C204022CDE9022108
:102C0000CDE90010130169462046049300F08AF9CB
:102C1000034A0C21204600F04BF806B010BD00001E
:102C200000E1F50530B585B00446192040220DF1CC
:102C3000080CCDE9001000236946150120468CE8F8
:102C40002C0000F06FF9192141F28832204600F083
:102C50002FF805B030BD30B585B0044618204022AD
:102C60000DF1080CCDE9001000236946150120463E
:102C70008CE82C0000F056F9182141F288322046E9
:102C800000F016F805B030BD70B50A6842624A68B7
:102C90008262C46AD1E90225D1E9043624F0F70141
:102CA0002A4333431A431143C162002070BD000020
:102CB00010B5444C4FF4FA532468B4FBF3F3534378
:102CC0005B1E02D24FF0004010BD426B12F0450F68
:102CD000F6D0426B520703D504218163084610BD2C
:102CE000426BD20702D00121816303E00269D2B2B4
:102CF0008A4201D0012010BD40F2FF5181630021C2
:102D000000F0F2F83049084201D1002010BD00283F
:102D100002DA4FF0007010BD410001D5402010BD17
:102D2000810001D5802010BDC10002D54FF4807014
:102D300010BD010102D54FF4007010BD410102D554
:102D40004FF4806010BDC10102D54FF4006010BD8A
:102D5000010202D54FF4805010BD410202D54FF45C
:102D6000005010BD810202D54FF4804010BDC10259
:102D700002D54FF4004010BD410302D54FF400309E
:102D800010BD810302D54FF4802010BDC10302D5D0
:102D90004FF4002010BD010402D54FF4801010BD87
:102DA000410402D54FF4001010BD810402D54FF448
:102DB000800010BD000702D54FF4000010BD4FF495
:102DC000803010BD2000002008E0FFFD124B4FF4C2
:102DD000FA5141F288321B68B3FBF1F15143491EAD
:102DE00002D24FF000407047426B12F0450FF6D010
:102DF000416B490703D50421816308467047416B45
:102E0000C90703D0012181630846704740F2FF5192
:102E10008163002070470000200000200E4B4FF41B
:102E2000FA5141F288321B68B3FBF1F15143491E5C
:102E300002D24FF000407047426B12F0450FF6D0BF
:102E4000416B490703D5042181630846704740F26E
:102E5000FF518163002070472000002030B51F4DD6
:102E60004FF4FA5341F288342D68B5FBF3F3634312
:102E70005B1E02D24FF0004030BD446B14F0450F92
:102E8000F6D0436B5B0703D504218163084630BD50
:102E9000436BDB0702D00121816303E00369DBB2EE
:102EA0008B4201D0012030BD40F2FF5181630021EF
:102EB00000F01AF810F4604F04D0410406D54FF426
:102EC000005030BD000C1080002030BD000402D541
:102ED0004FF4805030BD4FF4803030BD20000020D2
:102EE000006800F003007047084408B514300090F3
:102EF000006808BD70B511434268049EDDE90554C1
:102F0000334347F6FF6619432943B24321430A433B
:102F10004260002070BD0321016000207047D0F89E
:102F20008000704770B50A688260C468D1E90125E5
:102F3000D1E90336210B2A43334309031A431143D2
:102F4000C160002070BD0968C0F880100020704783
:102F500010B5064C01202070FDF7D2F918B9207881
:102F600020F001002070207810BD00000400002037
:102F70002DE9F04F89B00E460446FDF727FD0027E6
:102F8000009701970821834620683D46FFF7E4FC3F
:102F9000002835D1B4F8501020680904FFF7A8FCC8
:102FA00000282DD14FF008084FF002094FF0010C16
:102FB000421E3023CDE90228CDE90439CDE9067C53
:102FC000206802A9FFF760FE2068FFF7C7FD002810
:102FD00016D1EA4640F22A472068416B394212D1A5
:102FE000416B890204D5FFF79AFF4AF825006D1C52
:102FF000FDF7ECFCA0EB0B00401CEDD14FF00040C6
:1030000009B0BDE8F08F416B090703D5C0F83880DF
:103010000820F5E7416B890703D5C0F838900220F6
:10302000EEE7416B890603D5202181630846E7E777
:1030300040F2FF518163009800BA7060019800BAB5
:1030400030600020DCE710B590B004460120ADF8F8
:1030500038002068FFF744FF002864D0606C032824
:1030600042D02068FFF74EFD00285AD12068002189
:10307000FFF73AFF606704212068FFF735FFA0677C
:1030800008212068FFF730FFE0670C212068FFF778
:103090002BFF616CC4F88000032925D020680EA99D
:1030A000FFF78DFD00283CD1606C03281CD0BDF8D3
:1030B0003810216520680904FFF739FD002830D158
:1030C00020680021FFF710FF606604212068FFF7E9
:1030D0000BFFA06608212068FFF706FFE0660C21C1
:1030E0002068FFF701FF206704212068FFF7FCFE3E
:1030F000000DE06403A92046FEF7E8FAB4F850009A
:10310000002302042068FFF7E5FC002809D104F140
:10311000100007C88DE8070094E80F00FFF7EAFEEB
:10312000002010B010BD4FF08060FAE72DE9F843A1
:103130000025044600950068FFF740FC00281BD1DD
:103140002068FFF763FC4FF080784FF6FF76E0B120
:103150004FF08057A5640098B04200F10100009044
:103160001BD020680021FFF7C3FB20B92068002195
:10317000FFF7D8FB10B13846BDE8F883206800217E
:10318000FFF7B2FEC00FE6D020E00127A764009849
:10319000B04200F10100009001D14046ECE7206808
:1031A0000021FFF7A5FB0028E6D120684FF0804101
:1031B000FFF7B8FB0028DFD120680021FFF794FE5D
:1031C000C10FE4D0400001D5676400E065640020D1
:1031D000D2E71CB504460020009000210190206831
:1031E000FFF782FE800102D54FF400601CBD6946E6
:1031F0002046FFF7BDFE0028F8D10198C0030CD58A
:10320000B4F8501020680904FFF772FB0028EDD1D4
:1032100020680021FFF7B9FB1CBD4FF080601CBD8A
:103220001CB5044600200090002101902068FFF7A3
:103230005BFE800102D54FF400601CBD694620464C
:10324000FFF796FE0028F8D1019840030CD5B4F89A
:10325000501020680904FFF74BFB0028EDD12068CF
:103260000221FFF792FB1CBD4FF080601CBD0000E7
:1032700070B5064C054601202070FDF74DF818B9D1
:103280002846FFF765FE2070207870BD04000020FE
:10329000144810B588B014460078C00702D0032047
:1032A00008B010BD39B1012907D002290BD003297C
:1032B00010D00420F4E70020F2E76846FDF71AF882
:1032C000069900200CE06846FDF714F807990020E5
:1032D0002180E5E76846FDF70DF807990020490AC7
:1032E0002160DDE70400002070B501241D4616466C
:1032F0000846A31E2A463146FDF728F828B900BF24
:10330000FCF7FEFF0028FBD10024204670BDFFF72C
:103310001FBE000070B501241D4616460846A31EB8
:103320002A463146FDF722F828B900BFFCF7E8FF2E
:103330000028FBD10024204670BD10B5806B01220F
:1033400001684B6823F003034B60016E41F01001EC
:10335000016680F85D20FEF755FD10BD10B5806B4D
:10336000FEF7B0FF10BD10B5806BFFF7A2F810BDDF
:1033700070B5846B0546FDF729FB02462868006896
:10338000C0051CD42068416821F0200141602068FC
:10339000416821F0030141606421204600F041F8BA
:1033A00008B1202020660021A4F84610012084F8EE
:1033B0005D00206E18B12046FEF724FD70BD20464A
:1033C000FEF734FF70BD70B5846B0546FDF7FEFA5D
:1033D000024628680068C0051FD42068416821F0B3
:1033E000200141606421204600F055F818B1206E9C
:1033F00040F020002066206800210122436823F06D
:1034000003034360E187A4F8461084F85D20206E32
:1034100018B12046FEF7F6FC70BD2046FFF748F8CD
:1034200070BD2DE9F843044640684FF48276154696
:10343000B04289464FF400474FF4806809D1A06834
:10344000B84201D0404504D12068016821F0400114
:10345000016000224B4680212046009500F08FF845
:1034600080B96068B04214D1A068B84201D040452C
:103470000FD100224B464FF4C0612046009500F06A
:103480002EF830B1206E40F0200020660320BDE809
:10349000F8830020FBE7F8B515460E4604460B46B8
:1034A0004FF4C0510092002200F019F888B90022B0
:1034B000334680212046009500F061F848B900228B
:1034C00033464FF4C0612046009500F008F800280C
:1034D00004D0206E40F0200020660320F8BD2DE9C6
:1034E000F8434FF4C0681D4617460E46DDF820909D
:1034F00004463DE0464505D127B9007B8DF8000024
:103500009DF80000681C33D02DB1FDF75FFAA0EBE9
:103510000900A8422CD32068416821F0E0014160F5
:103520006068B0F5827F0BD1A068B0F5004F02D083
:10353000B0F5806F04D12068016821F0400101607E
:10354000A06AB0F5005F0AD120684DF6FF720168ED
:10355000114001602068016841F4005101600121BF
:1035600084F85D10002084F85C000320BDE8F88337
:10357000206881683140B942BCD10020F6E72DE9CE
:10358000F0411D4616460F460446DDF8188035E02A
:10359000681C33D02DB1FDF719FAA0EB0800A84242
:1035A0002CD32068416821F0E00141606068B0F5EB
:1035B000827F0BD1A068B0F5004F02D0B0F5806FCC
:1035C00004D12068016821F040010160A06AB0F5D3
:1035D000005F0AD120684DF6FF720168114001605A
:1035E0002068016841F400510160012184F85D10F8
:1035F000002084F85C000320BDE8F081206880682A
:103600003840B042C4D10020F6E7704710B5FDF74E
:10361000E3F9BDE81040FEF76DBF00003548F0B596
:103620000168B7B041F080510160006800F080503F
:1036300036903148016841F440410160006802243D
:103640000126670500F440403690E003CDE92A47A3
:1036500009232F932CADCDE924600621D22285E8E1
:10366000160024A8FDF758FE00B1FEE7FDF768FA42
:1036700000B1FEE74FF480524FF4A0510025CDE990
:10368000341231AA0F20072182E8310031A8FDF75A
:103690002BFD00B1FEE76B2107944FF08460009092
:1036A000CDE90514820108941F926846CDE90A65A8
:1036B0002195FDF77BFA00B1FEE70022394610465E
:1036C000FDF7E0FD002201204FF00041FDF7DAFD9B
:1036D000FDF7A0FD4FF47A71B0FBF1F0FEF7F7FEB5
:1036E0000420FEF7E7FE0022501E1146FDF7F6F912
:1036F00037B0F0BD4038024000700040104A30B58D
:103700001048146800210F4B44F47004146008330F
:1037100005680D4A0D4C45F0010505601960036808
:10372000051D1340074A03600C322C600568E30551
:10373000034C25F480250560803C1160236030BD7A
:1037400088ED00E000380240FFFFF6FE1030002454
:10375000FEE7FEE702E008C8121F08C1002AFAD1FE
:1037600070477047002001E001C1121F002AFBD101
:103770007047000010B504460022501EE27020631E
:10378000204601F03AF808B1042010BD04F23220BE
:1037900000F0A8FFA0F52A41553901D0032010BD43
:1037A00094F83400E92805D0EB2814D194F83600B9
:1037B000902810D104F16A0000F089FF0749B1EBAD
:1037C000002F06D004F1860000F081FF04498842F2
:1037D00001D1002010BD022010BD00000046415460
:1037E00046415433F0B5154D0022134605EB021443
:1037F00026685EB10768BE4209D166688768BE4226
:1038000005D1A4684669B44204D000E00123521CEB
:10381000052AEBD3052A01D069B904E04BB9022986
:1038200007D01220F0BD05EB02108089B0F5807F33
:1038300001D00020F0BD1020F0BD0000480502209E
:1038400030B5064B0024214603EB01121568854272
:1038500000D11460491C0529F6D330BD480502206B
:103860000268C06A938952895343B1FBF3F1001D8A
:1038700004C81AB1914203D3891AF8E700207047AF
:103880000068084470478269891E921E8A4201D8E6
:1038900000207047C26A408901FB002070472DE973
:1038A000F04105680F00804606D000F028FE02288F
:1038B00009D20120BDE8F0812E6916B1A869B04295
:1038C00007D8012605E0411CF4D0A9698142F1D84E
:1038D0003E463446A869641CA04203D8022E4FF02D
:1038E00002040AD32146404600F009FE38B10128FF
:1038F000E0D0411CDED0B442ECD10020DAE74FF03A
:10390000FF3621463246284600F090FF30B957B1C5
:1039100022463946284600F089FF20B101280FD001
:1039200001242046C6E7D5E905012C61891E88429D
:1039300001D8401E6861287940F001002871F0E745
:103940003446EEE72DE9F04124300D680B220E4697
:103950002021044600F04AFF00204FF0080C0146E9
:103960002A5C401C202A13D92F2A0CD05C2A0AD0AA
:103970002E2A01D0614516D3BCF10B0F20D02E2A80
:103980001ED10CE0401C2B5C2F2BFBD05C2BF9D004
:1039900028443060A1B12078E5281DD01EE0082120
:1039A0004FF00B0CDCE7802A03D3104B1A4412F8BB
:1039B000802C0FA300E05B1C1F7827B19742FAD13F
:1039C0000620BDE8F081A2F16103192B01D8203A4D
:1039D000D2B26254491CC3E705202070202A01D8C6
:1039E000042000E00020E0720020EAE7444B0008D9
:1039F000222A2B2C3A3B3C3D3E3F5B5D7C7F000006
:103A0000401E052812D20A4901EB00118889B0F541
:103A1000807F05D008B1401E80B2888110B103E0DC
:103A20000020FAE70020086000207047022070475D
:103A3000480502202DE9F04105680021044600F008
:103A4000E1F8002827D1E169284600F0D6FE0200FF
:103A500020D1206A0178A1B1C17A01F03F01A171A2
:103A6000C17A090710D40B2304F1240110F8016B6B
:103A70005B1E11F8017BA6EB070604D0002EF5D0E3
:103A800002E0042206E02EB10021204600F006F8F4
:103A90000200D8D01046BDE8F08100002DE9F047C3
:103AA00005464769C069894620372C6810B1B7F5CB
:103AB000001F02D30420BDE8F087A189B7FBF1F213
:103AC00001FB127100295FD1A969401C4FF0000869
:103AD000E86119B3A0896289B7FBF0F0521E104269
:103AE00052D1284600F00BFD012806461FD9701C54
:103AF00036D0A069B04241D8B9F1000F12D0A969FF
:103B00002846FFF7CCFE06000FD0012E0FD0701C08
:103B100026D0204600F0BEFF10BB0AE02089B0EBA3
:103B2000571F31D8C5F81C80C4E70720C3E702201F
:103B3000C1E7A289002104F1340000F057FE4FF0E4
:103B4000000831462046FFF79EFE4FF00109206332
:103B50000DE000BF204684F8039000F09BFF08B101
:103B60000120A8E7216B08F10108491C2163608945
:103B70004045EFD8216BA1EB080020633146204679
:103B8000AE61FFF780FEE8616F61A089B7FBF0F1DD
:103B900000FB117020443430286200208BE770B5A0
:103BA00006680021044600F02DF80DE0E16930467A
:103BB00000F023FE50B9206A0078E52809D040B112
:103BC00001212046FFF76AFF0028EFD0042807D024
:103BD00007E0E169304600F010FE050003D00FE079
:103BE000072005460CE0206A2022002100F0FEFD9F
:103BF000206A0B2204F1240100F0EEFD0120F07098
:103C0000284670BD2DE9F0410468B1F5001F0F464C
:103C100006463CD2F8063AD1B568776125B92078D6
:103C2000032806D3A56A25B16089A18900FB01F8A4
:103C300012E02089B0EB571F29D9A06A12E0304664
:103C400000F05DFC0546401C1FD0022D1FD3A0696B
:103C5000A8421CD9A7EB080729464745EFD22046C2
:103C6000FFF711FEC6E9065088B1A189B7FBF1F153
:103C70000844F061A089B7FBF0F100FB117020440B
:103C8000343030620020BDE8F0810120FBE70220E3
:103C9000F9E700000849002210B50B5C4BB901227E
:103CA0000A5401EB800208445168007A0968884789
:103CB0000246104610BD000098050220044B30B4A7
:103CC00003EB800418446368007A1B6930BC184712
:103CD0009805022030B4054C04EB800520446C6844
:103CE000007AA468A44630BC604700009805022012
:103CF000034901EB800208445168007A496808478B
:103D00009805022030B4054C04EB800520446C6813
:103D1000007AE468A44630BC6047000098050220A1
:103D200038B5044600F04AF900280CD1694620460F
:103D300000F0D9FE002806D12069FFF761FE0028B7
:103D400001D10021216038BD2DE9F74181B09046B5
:103D500002980090684600F049FC040003D50B204F
:103D600004B0BDE8F0810D4E002756F824501DB177
:103D70002846FFF765FD2F700198002800D00770D6
:103D800046F8240002D0B8F1010F01D00020E7E787
:103D9000002201A902A800F02FFAE1E72800002084
:103DA0002DE9F743050092B00BD002F03F066946BB
:103DB00013A8324600F020FA04004FF0000804D0A7
:103DC000F3E0092015B0BDE8F08300981399019045
:103DD00001A800F057FB04000ED19DF83300000647
:103DE00001D5062408E0700801D0012100E000217F
:103DF00001A8FFF7F7FC044616F01C0F5DD04FF04A
:103E00000109C4B1042C10D16B49002002E0401C10
:103E1000052804D201EB00121268002AF7D1052808
:103E200007D001A8FFF7BBFE044646F008065CB1C8
:103E3000BBE01224B9E09DF80A0010F0110F48D140
:103E4000700701D50824B0E0300748D500F0CCFB5E
:103E50000746099839460E3000F0CCFD09983946DE
:103E6000163000F0C7FD09982021C1720999009809
:103E700000F01AFC099900220746009800F0A6FD00
:103E8000099800211C3000F0B5FD009981F80390DD
:103E90001FB3D1F83090002201A8394600F05CFD34
:103EA000040009D10098494600F0A7FC04000098DE
:103EB000A7F1010707610ED077E0002C75D19DF8BE
:103EC0000A00C10601D504246FE0B10703D5C0077D
:103ED00001D0072469E0300701D546F0400600987C
:103EE000006B68620998A862700801D0012100E0A7
:103EF000002101A800F098FB2861B8B30999009847
:103F000000F0D2FBA86009981C3000F0E0FBC5F877
:103F10002C800146E96005F1300000994FF4805291
:103F2000296081460099C988A98000212E7585F8ED
:103F30001580C5F82080C5F8188000F057FCB00641
:103F400035D5EE689EB3AE610098A968478980892F
:103F500047430FE0284600F0D2FA0128014600D876
:103F60000224481C03D0F61B24B105E021E0012403
:103F7000F61B01E0BE42EDD8E961B4B90098828930
:103F8000B6FBF2F302FB13628AB1FFF77CFC80B14F
:103F9000009901238A89B6FBF2F202442A6248782A
:103FA0004946FFF797FE10B10124C5F8008020466E
:103FB00008E70224F9E7000048050220F8B50446A6
:103FC000694600F090FD00280ED1217D4A060BD5F0
:103FD00008060ED500980123226A04F130014078CA
:103FE000FFF790FE08B10120F8BD207D00F07F00B2
:103FF000207500F0F9FA616A0646009800F0FDFBB2
:104000000028F1D1A56A2946E87A40F02000E8723C
:10401000A268206800F0DAFCE16805F11C0000F0FD
:10402000E9FC05F11600314600F0E4FC002105F141
:10403000120000F0E7FC00980121C17000F0E6FCDE
:10404000217D01F0BF012175F8BD2DE9FE4F154618
:1040500099460022044688461A6002A900F043FDF2
:10406000002806D1607D002803D1207D800702D47E
:104070000720BDE8FE8FA069012704F1300B4FF047
:10408000020A411900D3C543ADE0029AA1699089A3
:10409000B1FBF0F300FB1313002B7AD1B1FBF0F668
:1040A0005289521E164018D129B1E06A38B1204613
:1040B000FFF7D6FB07E0A06838B9002100E0E1690E
:1040C0002046FFF7ECFB00287DD0012830D0411CB2
:1040D00059D0A168E06101B9A060207D00060BD530
:1040E00002980123226A59464078FFF70BFEC8BBAD
:1040F000207D00F07F002075E1690298FFF7C3FB87
:10410000B0B10299304401908889B5FBF0F000907D
:1041100048B3009A48893244824201D9801B0090FA
:1041200048784146DDE90032FFF7ECFDD0B903E005
:10413000022084F815A09CE7216A0198081A0099CA
:1041400088420AD202998A8900FB0281584600F00F
:1041500043FB207D00F07F0020750298868900983F
:1041600046432FE00FE0FFE7226A019882420ED01B
:10417000E268A06990420AD248780123019A594620
:10418000FFF7A8FD18B10120677572E701E00198FB
:1041900020620298A1698089B1FBF0F200FB121243
:1041A000861AAE4200D92E46B1FBF0F200FB121087
:1041B000324641462044303000F00EFB207D40F076
:1041C0008000207500E011E0A269B044E168901918
:1041D000A061884200D80846E060D9F80000AD1B15
:1041E0008119C9F80010002D7FF44FAF207D40F0F9
:1041F0004000207500203CE72DE9FF410027904654
:104200000E460F6000F0F2F9050003D50B2004B054
:10421000BDE8F081984850F825409CB1346008F022
:10422000FE06207820B16078FFF762FDC1070BD051
:104230002770B846E8B26070FFF72CFDC10708D0C0
:104240000320E4E70C20E2E70EB1400704D400208D
:10425000DDE71EB1400701D50A20D8E760780221CA
:1042600004F10C02FFF72AFDF0BBA089A0F5007154
:10427000B1F5606F40D8411E08423DD1002620466E
:104280003146FFF777FA022822D100254FEA0D07C1
:1042900004EB051090F8F61100F5F97019B108302B
:1042A00000F015FA00E0002047F825006D1C042DF1
:1042B000EED3002557F8256036B131462046FFF78A
:1042C00059FA022801D203E003206D1C042DF1D31A
:1042D000042811D002287AD204F13F0000F002FA3B
:1042E000A189884273D100E006E004F14A0000F0A1
:1042F000F9F9010002D006E0012088E704F1580036
:1043000000F0E5F9014694F84450E161012DA570F3
:1043100001D0022D5BD14D4394F841006081E8B398
:10432000411E084253D104F1450000F0DBF9A18998
:1043300020814909B0FBF1F201FB120070BB04F1CE
:10434000470000F0CFF9070004D104F1540000F059
:10435000BEF9074604F1420000F0C4F9020036D06D
:10436000A089511923894009B3FBF0F001448F4221
:104370002DD360897F1AB7FBF0F078B103274FF691
:10438000F57C604500D8022740F6F57C604500D8F2
:104390000127801C32443144E16200E017E0A06153
:1043A000032FC4E9086214D08BB15119A162022F06
:1043B00020D000F0010100EB400001EB5000A1898A
:1043C000401EE2690844B0FBF1F0904214D90D2080
:1043D0001DE704F15E0000F085F90028F7D120897F
:1043E0000028F4D104F1600000F071F9A169A06225
:1043F0008800E4E74000E2E74FF0FF316161802090
:104400002161032F20712CD104F1640000F06AF9BE
:10441000012826D1711C204600F0EFF908BB04F2F8
:10442000322084F8048000F05DF9A0F52A41553966
:1044300017D104F1340000F04AF91049884210D134
:1044400004F5067000F043F90D49884209D104F5DE
:10445000077000F03CF9606104F5087000F037F96E
:10446000206105492770091F0888401C0880E080EA
:104470002046FFF7E5F9EAE62800002052526141A4
:104480007272416173B505680446019801E0401CF1
:10449000019001782F29FAD05C29F8D00021A16081
:1044A00001980078202806D2802084F82F0020462A
:1044B000FFF7A8FB7CBD01A92046FFF743FA0028BF
:1044C000F8D12046FFF7B6FA94F82F1028B1042847
:1044D000F0D14907EED405207CBD4907FCD4A07972
:1044E000C006F8D5A9896069B0FBF1F201FB1200A2
:1044F00041192846343100F0D7F8A060DBE72DE9F8
:10450000F041046802290D460BD3A069A84208D9DE
:1045100020784FF0FF36012807D0022835D0032835
:104520004AD001263046BDE8F081A08905EB550749
:10453000616AB7FBF0F00144204600F05EF9002804
:10454000F0D1A08907F10108B7FBF0F100FB117170
:10455000B8FBF0F0214491F83470616A01442046C0
:1045600000F04BF90028DDD1A089E907B8FBF0F293
:1045700000FB1280204490F8341047EA012001D05B
:104580000609CFE7C0F30B06CCE7A189606A4908AA
:10459000B5FBF1F10144204600F02FF90028C1D10C
:1045A000A0896900B1FBF0F200FB12102044343006
:1045B00000F098F80646B5E7A189606A8908B5FB5E
:1045C000F1F10144204600F018F90028AAD1A08991
:1045D000A900B1FBF0F200FB12102044343000F0CF
:1045E00076F820F070469DE70020704710B502680D
:1045F00004464FF0FF30002A13D0114600E0491C5A
:104600000B78212B0ED33A2BF9D112F8013B303B1A
:104610000A2B06D28A4204D1002B02D1491C18462B
:10462000216010BD002010BDF0B51E4A034605688C
:104630005FF0000002EB00142668AE4207D1666806
:104640009F68BE4203D1A4685E69B44202D0401C98
:104650000528EFD3052814D1002002E0401C0528CE
:1046600004D202EB00142468002CF7D105280ED0E8
:1046700002EB0014002625609D6865605B69A360FD
:10468000A681002902EB0011898902D019B100200E
:10469000F0BD491C01E04FF4807102EB0012401C98
:1046A0009181F0BD4805022070B50D46064601F126
:1046B0001A0000F017F804463078032805D105F1F8
:1046C000140000F00FF844EA0044204670BD8378DF
:1046D00042780178C07843EA002042EA002041EAAB
:1046E000002070470178407841EA002070470000C0
:1046F000FCF77AF9FEF792FFFDF756FFFDF700FF92
:10470000FEF752F8FEF72CF8FEF7BAF82748002417
:104710002549C0E900148460C46004614461846177
:10472000FDF734FFFEF788F8FEF762F82049002213
:104730002048FFF709FB204D58B923480A221FA142
:10474000FFF72EFB4FF0010260B304212846FCF76F
:1047500037F94FF4FA70FCF735F8002228460821A3
:10476000FCF72EF9194900204FF4F05201F570536F
:1047700001F5F04501F5344621F8104023F81040CA
:1047800025F8104026F81040401C9042F4DB0F48FA
:104790000F496438FDF7C2FC01220E481146FCF7B0
:1047A0000FF9FEE70821D1E7001C01402C00002092
:1047B00000000020A4F200200018024044415441AF
:1047C0002E48455800000000D8020120A402002015
:1047D000A47A002000140240002A05D011F8013B01
:1047E000521E00F8013BF9D1704700005FFA81F1D9
:1047F000521E00F8011BFBD1704770B50446006BD8
:1048000000260D46A8420FD0204600F043F90600CE
:104810000AD16078012304F134012A46FFF75AFADD
:1048200008B1751E01262563304670BD2DE9F0479D
:10483000022917460D4604464FF002067ED3A069B2
:10484000A8427BD920784FF00109012804D0022822
:1048500043D003287DD157E0A18905EB5508626A52
:10486000B8FBF1F081182046FFF7C7FF060070D1B2
:10487000A2894046EE07B8FBF2F308F1010802FBFB
:104880001300204400F1340004D00178FAB262F33E
:104890001F1100E03946017084F80390A189626A13
:1048A000B8FBF1F081182046FFF7A7FF060050D1B2
:1048B000A189EB07B8FBF1F201FB1280204400F163
:1048C000340002D0C7F3071105E00178C7F30322D3
:1048D00001F0F0011143017039E0A189606A4908D3
:1048E000B5FBF1F101442046FFF787FF060030D108
:1048F000A0896900B1FBF0F200FB1210B9B22044AC
:10490000343000F07FF822E0A189606A8908B5FBA5
:10491000F1F101442046FFF770FF060019D1A0898C
:10492000AD00B5FBF0F100FB115020443430FFF72F
:10493000CEFE67F31B000146A08900E009E0B5FB4D
:10494000F0F200FB12502044343000F053F884F8A9
:1049500003903046BDE8F0872DE9F0410568022953
:1049600013460E4607462DD3A869B0422AD93BB15B
:104970004FF0FF3219462846FFF758FF00281FD195
:1049800031463846FFF7BBFD040018D0012C19D082
:10499000601C19D0002231462846FFF747FF002847
:1049A0000ED1D5E90510821E914205D22A79491C03
:1049B000696142F001022A712646B042E0D8002027
:1049C000BDE8F0810220FBE70120F9E770B50C4655
:1049D000154691B2064604F11A0000F013F830783B
:1049E000032806D1290C04F11400BDE8704000F042
:1049F00009B870BD0A0A01704270110A81700A0A72
:104A0000C27070470A0A01704270704770B5044660
:104A100000F040F8050036D1207803282CD1207909
:104A2000012829D104F13400A28900210646FFF7AC
:104A3000DDFE04F232204AF65521FFF7E3FF134969
:104A40003046FFF7D7FF124904F50670FFF7D2FF93
:104A5000616904F50770FFF7CDFF216904F508705F
:104A6000FFF7C8FF226A01233146521C2263607897
:104A7000FFF748F900202071002260781146FFF707
:104A80001DF900B10125284670BD00005252614158
:104A9000727241612DE9F0410446C0780027F8B1F7
:104AA000256B04F13401607801232A468846FFF71C
:104AB00029F908B1012713E0626A0020E169AA1A06
:104AC000E0708A420CD2A67808E0E06901234146F2
:104AD000054460782A46FFF715F9761E022EF4D2B7
:104AE0003846BDE8F08170B504000D460CD0206852
:104AF00050B1017841B1C188A288914204D1407877
:104B0000FFF7F6F8C00702D00021092001E0216874
:104B10000020296070BD0000713200080F330008CA
:104B2000E93200081533000891320008000610161B
:104B3000000610160000000000000000010203043F
:104B4000060708094355454141414143454545490B
:104B5000494941414592924F4F4F5555594F554FF5
:104B60009C4F9E9F41494F55A5A5A6A7A8A9AAABB2
:104B7000ACADAEAFB0B1B2B3B4414141B8B9BABB5C
:104B8000BCBDBEBFC0C1C2C3C4C54141C8C9CACBF8
:104B9000CCCDCECFD1D145454549494949D9DADBBC
:104BA000DCDD49DF4FE14F4F4F4FE6E8E855555503
:104BB0005959EEEFF0F1F2F3F4F5F6F7F8F9FAFBE4
:104BC000FCFDFEFF01000400100040000001000297
:104BD0000000010002000400080010002000000096
:104BE000004C0008000000202C0000005437000892
:104BF0002C4C00082C0000207CF5020064370008D3
:104C000000000000010000000000000000000000A3
:104C10000000000001000000100000000000000083
:0C4C20000024F400000000000000000070
:04000005080001F9F5
:00000001FF
